{
  "address": "0xe7f1725E7734CE288F8367e1Bb143E90bb3F0512",
  "abi": [
    {
      "inputs": [
        {
          "internalType": "uint256",
          "name": "_initialTimestamp",
          "type": "uint256"
        },
        {
          "internalType": "uint256",
          "name": "_intervalTime",
          "type": "uint256"
        },
        {
          "internalType": "address",
          "name": "_admin",
          "type": "address"
        },
        {
          "internalType": "uint256",
          "name": "_adminApplicationFee",
          "type": "uint256"
        }
      ],
      "stateMutability": "nonpayable",
      "type": "constructor"
    },
    {
      "anonymous": false,
      "inputs": [
        {
          "indexed": true,
          "internalType": "address",
          "name": "userAddress",
          "type": "address"
        },
        {
          "indexed": true,
          "internalType": "enum Charlize.UserState",
          "name": "stateOfUser",
          "type": "uint8"
        },
        {
          "indexed": true,
          "internalType": "uint256",
          "name": "registrationDate",
          "type": "uint256"
        }
      ],
      "name": "AccessGranted",
      "type": "event"
    },
    {
      "anonymous": false,
      "inputs": [],
      "name": "CheckExpirationDate",
      "type": "event"
    },
    {
      "anonymous": false,
      "inputs": [
        {
          "indexed": false,
          "internalType": "address",
          "name": "adminApplicantAddress",
          "type": "address"
        }
      ],
      "name": "LogDeposit",
      "type": "event"
    },
    {
      "anonymous": false,
      "inputs": [
        {
          "indexed": true,
          "internalType": "address",
          "name": "previousOwner",
          "type": "address"
        },
        {
          "indexed": true,
          "internalType": "address",
          "name": "newOwner",
          "type": "address"
        }
      ],
      "name": "OwnershipTransferred",
      "type": "event"
    },
    {
      "anonymous": false,
      "inputs": [
        {
          "indexed": false,
          "internalType": "uint256",
          "name": "reagentNDC",
          "type": "uint256"
        },
        {
          "indexed": false,
          "internalType": "uint256",
          "name": "reagentLotNumber",
          "type": "uint256"
        },
        {
          "indexed": false,
          "internalType": "address",
          "name": "producerAddress",
          "type": "address"
        },
        {
          "indexed": true,
          "internalType": "uint256",
          "name": "expirationDate",
          "type": "uint256"
        }
      ],
      "name": "ReagentCreation",
      "type": "event"
    },
    {
      "anonymous": false,
      "inputs": [
        {
          "indexed": true,
          "internalType": "bytes32",
          "name": "role",
          "type": "bytes32"
        },
        {
          "indexed": true,
          "internalType": "bytes32",
          "name": "previousAdminRole",
          "type": "bytes32"
        },
        {
          "indexed": true,
          "internalType": "bytes32",
          "name": "newAdminRole",
          "type": "bytes32"
        }
      ],
      "name": "RoleAdminChanged",
      "type": "event"
    },
    {
      "anonymous": false,
      "inputs": [
        {
          "indexed": true,
          "internalType": "bytes32",
          "name": "role",
          "type": "bytes32"
        },
        {
          "indexed": true,
          "internalType": "address",
          "name": "account",
          "type": "address"
        },
        {
          "indexed": true,
          "internalType": "address",
          "name": "sender",
          "type": "address"
        }
      ],
      "name": "RoleGranted",
      "type": "event"
    },
    {
      "anonymous": false,
      "inputs": [
        {
          "indexed": true,
          "internalType": "bytes32",
          "name": "role",
          "type": "bytes32"
        },
        {
          "indexed": true,
          "internalType": "address",
          "name": "account",
          "type": "address"
        },
        {
          "indexed": true,
          "internalType": "address",
          "name": "sender",
          "type": "address"
        }
      ],
      "name": "RoleRevoked",
      "type": "event"
    },
    {
      "anonymous": false,
      "inputs": [
        {
          "indexed": true,
          "internalType": "address",
          "name": "clientAddress",
          "type": "address"
        },
        {
          "indexed": true,
          "internalType": "uint256",
          "name": "reagentNDC",
          "type": "uint256"
        },
        {
          "indexed": true,
          "internalType": "uint256",
          "name": "reagentLotNumber",
          "type": "uint256"
        }
      ],
      "name": "SubscribedToReagent",
      "type": "event"
    },
    {
      "anonymous": false,
      "inputs": [
        {
          "indexed": true,
          "internalType": "address",
          "name": "userAddress",
          "type": "address"
        },
        {
          "indexed": false,
          "internalType": "uint256",
          "name": "roleNumber",
          "type": "uint256"
        },
        {
          "indexed": false,
          "internalType": "string",
          "name": "email",
          "type": "string"
        },
        {
          "indexed": true,
          "internalType": "enum Charlize.UserState",
          "name": "stateOfUser",
          "type": "uint8"
        },
        {
          "indexed": true,
          "internalType": "uint256",
          "name": "registrationDate",
          "type": "uint256"
        }
      ],
      "name": "UserRegistered",
      "type": "event"
    },
    {
      "stateMutability": "nonpayable",
      "type": "fallback"
    },
    {
      "inputs": [],
      "name": "ADMIN",
      "outputs": [
        {
          "internalType": "bytes32",
          "name": "",
          "type": "bytes32"
        }
      ],
      "stateMutability": "view",
      "type": "function"
    },
    {
      "inputs": [],
      "name": "CLIENT",
      "outputs": [
        {
          "internalType": "bytes32",
          "name": "",
          "type": "bytes32"
        }
      ],
      "stateMutability": "view",
      "type": "function"
    },
    {
      "inputs": [],
      "name": "DEFAULT_ADMIN_ROLE",
      "outputs": [
        {
          "internalType": "bytes32",
          "name": "",
          "type": "bytes32"
        }
      ],
      "stateMutability": "view",
      "type": "function"
    },
    {
      "inputs": [],
      "name": "PRODUCER",
      "outputs": [
        {
          "internalType": "bytes32",
          "name": "",
          "type": "bytes32"
        }
      ],
      "stateMutability": "view",
      "type": "function"
    },
    {
      "inputs": [],
      "name": "adminApplicationFee",
      "outputs": [
        {
          "internalType": "uint256",
          "name": "",
          "type": "uint256"
        }
      ],
      "stateMutability": "view",
      "type": "function"
    },
    {
      "inputs": [],
      "name": "balance",
      "outputs": [
        {
          "internalType": "uint256",
          "name": "",
          "type": "uint256"
        }
      ],
      "stateMutability": "view",
      "type": "function"
    },
    {
      "inputs": [],
      "name": "changeUserFromRetiredOrRejectedToPending",
      "outputs": [],
      "stateMutability": "nonpayable",
      "type": "function"
    },
    {
      "inputs": [
        {
          "internalType": "bytes",
          "name": "",
          "type": "bytes"
        }
      ],
      "name": "checkUpkeep",
      "outputs": [
        {
          "internalType": "bool",
          "name": "upkeepNeeded",
          "type": "bool"
        },
        {
          "internalType": "bytes",
          "name": "",
          "type": "bytes"
        }
      ],
      "stateMutability": "view",
      "type": "function"
    },
    {
      "inputs": [],
      "name": "counter",
      "outputs": [
        {
          "internalType": "uint256",
          "name": "",
          "type": "uint256"
        }
      ],
      "stateMutability": "view",
      "type": "function"
    },
    {
      "inputs": [
        {
          "internalType": "uint256",
          "name": "reagentNDC",
          "type": "uint256"
        },
        {
          "internalType": "uint256",
          "name": "reagentLotNumber",
          "type": "uint256"
        },
        {
          "internalType": "uint256",
          "name": "expirationDate",
          "type": "uint256"
        }
      ],
      "name": "createReagent",
      "outputs": [],
      "stateMutability": "nonpayable",
      "type": "function"
    },
    {
      "inputs": [
        {
          "internalType": "bytes32",
          "name": "role",
          "type": "bytes32"
        }
      ],
      "name": "getRoleAdmin",
      "outputs": [
        {
          "internalType": "bytes32",
          "name": "",
          "type": "bytes32"
        }
      ],
      "stateMutability": "view",
      "type": "function"
    },
    {
      "inputs": [
        {
          "internalType": "address",
          "name": "userAddress",
          "type": "address"
        }
      ],
      "name": "getUserState",
      "outputs": [
        {
          "internalType": "enum Charlize.UserState",
          "name": "",
          "type": "uint8"
        }
      ],
      "stateMutability": "view",
      "type": "function"
    },
    {
      "inputs": [
        {
          "internalType": "address",
          "name": "userAddress",
          "type": "address"
        },
        {
          "internalType": "uint256",
          "name": "roleNumber",
          "type": "uint256"
        }
      ],
      "name": "grantAccess",
      "outputs": [],
      "stateMutability": "nonpayable",
      "type": "function"
    },
    {
      "inputs": [
        {
          "internalType": "bytes32",
          "name": "role",
          "type": "bytes32"
        },
        {
          "internalType": "address",
          "name": "account",
          "type": "address"
        }
      ],
      "name": "grantRole",
      "outputs": [],
      "stateMutability": "nonpayable",
      "type": "function"
    },
    {
      "inputs": [
        {
          "internalType": "bytes32",
          "name": "role",
          "type": "bytes32"
        },
        {
          "internalType": "address",
          "name": "account",
          "type": "address"
        }
      ],
      "name": "hasRole",
      "outputs": [
        {
          "internalType": "bool",
          "name": "",
          "type": "bool"
        }
      ],
      "stateMutability": "view",
      "type": "function"
    },
    {
      "inputs": [],
      "name": "initialTimestamp",
      "outputs": [
        {
          "internalType": "uint256",
          "name": "",
          "type": "uint256"
        }
      ],
      "stateMutability": "view",
      "type": "function"
    },
    {
      "inputs": [],
      "name": "intervalTime",
      "outputs": [
        {
          "internalType": "uint256",
          "name": "",
          "type": "uint256"
        }
      ],
      "stateMutability": "view",
      "type": "function"
    },
    {
      "inputs": [
        {
          "internalType": "address",
          "name": "userAddress",
          "type": "address"
        }
      ],
      "name": "isAdmin",
      "outputs": [
        {
          "internalType": "bool",
          "name": "",
          "type": "bool"
        }
      ],
      "stateMutability": "view",
      "type": "function"
    },
    {
      "inputs": [
        {
          "internalType": "address",
          "name": "userAddress",
          "type": "address"
        }
      ],
      "name": "isClient",
      "outputs": [
        {
          "internalType": "bool",
          "name": "",
          "type": "bool"
        }
      ],
      "stateMutability": "view",
      "type": "function"
    },
    {
      "inputs": [
        {
          "internalType": "address",
          "name": "userAddress",
          "type": "address"
        }
      ],
      "name": "isProducer",
      "outputs": [
        {
          "internalType": "bool",
          "name": "",
          "type": "bool"
        }
      ],
      "stateMutability": "view",
      "type": "function"
    },
    {
      "inputs": [],
      "name": "lastUpkeep",
      "outputs": [
        {
          "internalType": "uint256",
          "name": "",
          "type": "uint256"
        }
      ],
      "stateMutability": "view",
      "type": "function"
    },
    {
      "inputs": [],
      "name": "owner",
      "outputs": [
        {
          "internalType": "address",
          "name": "",
          "type": "address"
        }
      ],
      "stateMutability": "view",
      "type": "function"
    },
    {
      "inputs": [
        {
          "internalType": "bytes",
          "name": "",
          "type": "bytes"
        }
      ],
      "name": "performUpkeep",
      "outputs": [],
      "stateMutability": "nonpayable",
      "type": "function"
    },
    {
      "inputs": [],
      "name": "producerCount",
      "outputs": [
        {
          "internalType": "uint256",
          "name": "",
          "type": "uint256"
        }
      ],
      "stateMutability": "view",
      "type": "function"
    },
    {
      "inputs": [],
      "name": "reagentCount",
      "outputs": [
        {
          "internalType": "uint256",
          "name": "",
          "type": "uint256"
        }
      ],
      "stateMutability": "view",
      "type": "function"
    },
    {
      "inputs": [
        {
          "internalType": "uint256",
          "name": "reagentNDC",
          "type": "uint256"
        },
        {
          "internalType": "uint256",
          "name": "reagentLotNumber",
          "type": "uint256"
        }
      ],
      "name": "reagentId",
      "outputs": [
        {
          "internalType": "bytes32",
          "name": "",
          "type": "bytes32"
        }
      ],
      "stateMutability": "pure",
      "type": "function"
    },
    {
      "inputs": [
        {
          "internalType": "address",
          "name": "adminApplicant",
          "type": "address"
        }
      ],
      "name": "registerAdmin",
      "outputs": [
        {
          "internalType": "uint256",
          "name": "",
          "type": "uint256"
        }
      ],
      "stateMutability": "payable",
      "type": "function"
    },
    {
      "inputs": [
        {
          "internalType": "uint256",
          "name": "roleNumber",
          "type": "uint256"
        },
        {
          "internalType": "string",
          "name": "email",
          "type": "string"
        }
      ],
      "name": "registerUser",
      "outputs": [],
      "stateMutability": "nonpayable",
      "type": "function"
    },
    {
      "inputs": [],
      "name": "renounceOwnership",
      "outputs": [],
      "stateMutability": "nonpayable",
      "type": "function"
    },
    {
      "inputs": [
        {
          "internalType": "bytes32",
          "name": "role",
          "type": "bytes32"
        },
        {
          "internalType": "address",
          "name": "account",
          "type": "address"
        }
      ],
      "name": "renounceRole",
      "outputs": [],
      "stateMutability": "nonpayable",
      "type": "function"
    },
    {
      "inputs": [
        {
          "internalType": "address",
          "name": "userAddress",
          "type": "address"
        }
      ],
      "name": "revokeAccess",
      "outputs": [],
      "stateMutability": "nonpayable",
      "type": "function"
    },
    {
      "inputs": [
        {
          "internalType": "bytes32",
          "name": "role",
          "type": "bytes32"
        },
        {
          "internalType": "address",
          "name": "account",
          "type": "address"
        }
      ],
      "name": "revokeRole",
      "outputs": [],
      "stateMutability": "nonpayable",
      "type": "function"
    },
    {
      "inputs": [
        {
          "internalType": "uint256",
          "name": "reagentNDC",
          "type": "uint256"
        },
        {
          "internalType": "uint256",
          "name": "reagentLotNumber",
          "type": "uint256"
        }
      ],
      "name": "subscribeToAReagent",
      "outputs": [],
      "stateMutability": "nonpayable",
      "type": "function"
    },
    {
      "inputs": [
        {
          "internalType": "bytes4",
          "name": "interfaceId",
          "type": "bytes4"
        }
      ],
      "name": "supportsInterface",
      "outputs": [
        {
          "internalType": "bool",
          "name": "",
          "type": "bool"
        }
      ],
      "stateMutability": "view",
      "type": "function"
    },
    {
      "inputs": [
        {
          "internalType": "address",
          "name": "newOwner",
          "type": "address"
        }
      ],
      "name": "transferOwnership",
      "outputs": [],
      "stateMutability": "nonpayable",
      "type": "function"
    },
    {
      "inputs": [],
      "name": "userApplicationCount",
      "outputs": [
        {
          "internalType": "uint256",
          "name": "",
          "type": "uint256"
        }
      ],
      "stateMutability": "view",
      "type": "function"
    },
    {
      "stateMutability": "payable",
      "type": "receive"
    }
  ],
  "transactionHash": "0xac8afec6774ecdc8887edba3f66f182a87c94c172abeebaabf07df3ac0d542fb",
  "args": [
    1638324714,
    300,
    "0x5FbDB2315678afecb367f032d93F642f64180aa3",
    1
  ],
  "solcInputHash": "ab3260c3542c29bf8e9bc949fc51e1c2",
  "bytecode": "0x60806040523480156200001157600080fd5b506040516200380638038062003806833981810160405281019062000037919062000443565b620000576200004b620000dc60201b60201c565b620000e460201b60201c565b83600281905550826003819055508360048190555080600a81905550620000886000801b33620001a860201b60201c565b620000bd7fdf8b4c520ffe197c5343c6f5aec59570151ef9a492f2c624fd45ddde6135ec426000801b620001be60201b60201c565b620000d26000801b83620001a860201b60201c565b50505050620004b5565b600033905090565b60008060009054906101000a900473ffffffffffffffffffffffffffffffffffffffff169050816000806101000a81548173ffffffffffffffffffffffffffffffffffffffff021916908373ffffffffffffffffffffffffffffffffffffffff1602179055508173ffffffffffffffffffffffffffffffffffffffff168173ffffffffffffffffffffffffffffffffffffffff167f8be0079c531659141344cd1fd0a4f28419497f9722a3daafe3b4186f6b6457e060405160405180910390a35050565b620001ba82826200022260201b60201c565b5050565b6000620001d1836200031360201b60201c565b90508160016000858152602001908152602001600020600101819055508181847fbd79b86ffe0ab8e8776151514217cd7cacd52c909f66475c3af44e129f0b00ff60405160405180910390a4505050565b6200023482826200033360201b60201c565b6200030f57600180600084815260200190815260200160002060000160008373ffffffffffffffffffffffffffffffffffffffff1673ffffffffffffffffffffffffffffffffffffffff16815260200190815260200160002060006101000a81548160ff021916908315150217905550620002b4620000dc60201b60201c565b73ffffffffffffffffffffffffffffffffffffffff168173ffffffffffffffffffffffffffffffffffffffff16837f2f8788117e7eff1d82e926ec794901d17c78024a50270940304540a733656f0d60405160405180910390a45b5050565b600060016000838152602001908152602001600020600101549050919050565b60006001600084815260200190815260200160002060000160008373ffffffffffffffffffffffffffffffffffffffff1673ffffffffffffffffffffffffffffffffffffffff16815260200190815260200160002060009054906101000a900460ff16905092915050565b600080fd5b6000819050919050565b620003b881620003a3565b8114620003c457600080fd5b50565b600081519050620003d881620003ad565b92915050565b600073ffffffffffffffffffffffffffffffffffffffff82169050919050565b60006200040b82620003de565b9050919050565b6200041d81620003fe565b81146200042957600080fd5b50565b6000815190506200043d8162000412565b92915050565b6000806000806080858703121562000460576200045f6200039e565b5b60006200047087828801620003c7565b94505060206200048387828801620003c7565b935050604062000496878288016200042c565b9250506060620004a987828801620003c7565b91505092959194509250565b61334180620004c56000396000f3fe6080604052600436106102135760003560e01c8063939b409f11610118578063d2e1da1e116100a0578063da093fc01161006f578063da093fc014610808578063db40bcff14610845578063f2fde38b14610870578063f552102214610899578063fd3c9144146108d657610233565b8063d2e1da1e1461075e578063d547741f14610789578063d6d14171146107b2578063d708fe5b146107dd57610233565b8063b431b2dc116100e7578063b431b2dc14610698578063b69ef8a8146106af578063c24db160146106da578063c38c581314610705578063d00d30e01461073557610233565b8063939b409f146105f05780639df8925614610619578063a217fddf14610642578063aaabeb361461066d57610233565b80634585e33b1161019b57806384b7964f1161016a57806384b7964f146104f757806385e68531146105345780638691a74a1461055d5780638da5cb5b1461058857806391d14854146105b357610233565b80634585e33b1461044e57806361bc221a146104775780636e04ff0d146104a2578063715018a6146104e057610233565b80632a0acc6a116101e25780632a0acc6a146103695780632f2ff15d1461039457806336568abe146103bd5780633d7c5d3e146103e6578063416ae7681461041157610233565b806301ffc9a7146102895780631c57333e146102c6578063248a9ca3146102ef57806324d7806c1461032c57610233565b3661023357346009600082825461022a9190612049565b92505081905550005b34801561023f57600080fd5b506000803690501461025057600080fd5b7fd3f6be9fd42ca63d7d8f466cf84e429063ac713c319d5fd9edfa0232fc5f684d3360405161027f91906120e0565b60405180910390a1005b34801561029557600080fd5b506102b060048036038101906102ab9190612167565b610901565b6040516102bd91906121af565b60405180910390f35b3480156102d257600080fd5b506102ed60048036038101906102e8919061233c565b61097b565b005b3480156102fb57600080fd5b50610316600480360381019061031191906123ce565b610ae9565b604051610323919061240a565b60405180910390f35b34801561033857600080fd5b50610353600480360381019061034e9190612451565b610b09565b60405161036091906121af565b60405180910390f35b34801561037557600080fd5b5061037e610b1f565b60405161038b919061240a565b60405180910390f35b3480156103a057600080fd5b506103bb60048036038101906103b6919061247e565b610b43565b005b3480156103c957600080fd5b506103e460048036038101906103df919061247e565b610b6c565b005b3480156103f257600080fd5b506103fb610bef565b60405161040891906124cd565b60405180910390f35b34801561041d57600080fd5b5061043860048036038101906104339190612451565b610bf5565b604051610445919061255f565b60405180910390f35b34801561045a57600080fd5b50610475600480360381019061047091906125da565b610c4b565b005b34801561048357600080fd5b5061048c610cb9565b60405161049991906124cd565b60405180910390f35b3480156104ae57600080fd5b506104c960048036038101906104c491906126c8565b610cbf565b6040516104d7929190612799565b60405180910390f35b3480156104ec57600080fd5b506104f5610cec565b005b34801561050357600080fd5b5061051e60048036038101906105199190612451565b610d74565b60405161052b91906121af565b60405180910390f35b34801561054057600080fd5b5061055b60048036038101906105569190612451565b610da7565b005b34801561056957600080fd5b50610572610e26565b60405161057f919061240a565b60405180910390f35b34801561059457600080fd5b5061059d610e4a565b6040516105aa91906120e0565b60405180910390f35b3480156105bf57600080fd5b506105da60048036038101906105d5919061247e565b610e73565b6040516105e791906121af565b60405180910390f35b3480156105fc57600080fd5b50610617600480360381019061061291906127c9565b610ede565b005b34801561062557600080fd5b50610640600480360381019061063b919061281c565b61100c565b005b34801561064e57600080fd5b50610657611286565b604051610664919061240a565b60405180910390f35b34801561067957600080fd5b5061068261128d565b60405161068f91906124cd565b60405180910390f35b3480156106a457600080fd5b506106ad611293565b005b3480156106bb57600080fd5b506106c4611311565b6040516106d191906124cd565b60405180910390f35b3480156106e657600080fd5b506106ef611317565b6040516106fc91906124cd565b60405180910390f35b61071f600480360381019061071a9190612451565b61131d565b60405161072c91906124cd565b60405180910390f35b34801561074157600080fd5b5061075c6004803603810190610757919061285c565b611545565b005b34801561076a57600080fd5b50610773611679565b604051610780919061240a565b60405180910390f35b34801561079557600080fd5b506107b060048036038101906107ab919061247e565b61169d565b005b3480156107be57600080fd5b506107c76116c6565b6040516107d491906124cd565b60405180910390f35b3480156107e957600080fd5b506107f26116cc565b6040516107ff91906124cd565b60405180910390f35b34801561081457600080fd5b5061082f600480360381019061082a919061285c565b6116d2565b60405161083c919061240a565b60405180910390f35b34801561085157600080fd5b5061085a611705565b60405161086791906124cd565b60405180910390f35b34801561087c57600080fd5b5061089760048036038101906108929190612451565b61170b565b005b3480156108a557600080fd5b506108c060048036038101906108bb9190612451565b611803565b6040516108cd91906121af565b60405180910390f35b3480156108e257600080fd5b506108eb611836565b6040516108f891906124cd565b60405180910390f35b60007f7965db0b000000000000000000000000000000000000000000000000000000007bffffffffffffffffffffffffffffffffffffffffffffffffffffffff1916827bffffffffffffffffffffffffffffffffffffffffffffffffffffffff1916148061097457506109738261183c565b5b9050919050565b6000600c60003373ffffffffffffffffffffffffffffffffffffffff1673ffffffffffffffffffffffffffffffffffffffff16815260200190815260200160002054146109fd576040517f08c379a00000000000000000000000000000000000000000000000000000000081526004016109f49061291f565b60405180910390fd5b6001600854610a0c9190612049565b600881905550600080600b60003373ffffffffffffffffffffffffffffffffffffffff1673ffffffffffffffffffffffffffffffffffffffff16815260200190815260200160002060006101000a81548160ff02191690836003811115610a7657610a756124e8565b5b0217905550600042905080826003811115610a9457610a936124e8565b5b3373ffffffffffffffffffffffffffffffffffffffff167eca4f5b36f76a4228d4087cc6def18e35559ad4ff688228b10eac8719d4ccb48787604051610adb929190612983565b60405180910390a450505050565b600060016000838152602001908152602001600020600101549050919050565b6000610b186000801b83610e73565b9050919050565b7fdf8b4c520ffe197c5343c6f5aec59570151ef9a492f2c624fd45ddde6135ec4281565b610b4c82610ae9565b610b5d81610b586118a6565b6118ae565b610b67838361194b565b505050565b610b746118a6565b73ffffffffffffffffffffffffffffffffffffffff168173ffffffffffffffffffffffffffffffffffffffff1614610be1576040517f08c379a0000000000000000000000000000000000000000000000000000000008152600401610bd890612a25565b60405180910390fd5b610beb8282611a2b565b5050565b60045481565b6000600b60008373ffffffffffffffffffffffffffffffffffffffff1673ffffffffffffffffffffffffffffffffffffffff16815260200190815260200160002060009054906101000a900460ff169050919050565b60035460045442610c5c9190612a45565b1015610c6757600080fd5b60004290506001600554610c7b9190612049565b6005819055507f27b5030c821f67def7a41856122519006241350e393752bf1c305bbee0a8443960405160405180910390a180600481905550505050565b60055481565b60006060600254421015610cd257600080fd5b60035460045442610ce39190612a45565b10159150915091565b610cf46118a6565b73ffffffffffffffffffffffffffffffffffffffff16610d12610e4a565b73ffffffffffffffffffffffffffffffffffffffff1614610d68576040517f08c379a0000000000000000000000000000000000000000000000000000000008152600401610d5f90612ac5565b60405180910390fd5b610d726000611b0d565b565b6000610da07f43023f179164d629e1d761fb32e2db4dbd5ce417a23159d7da9cc7b56268928583610e73565b9050919050565b610daf6118a6565b73ffffffffffffffffffffffffffffffffffffffff16610dcd610e4a565b73ffffffffffffffffffffffffffffffffffffffff1614610e23576040517f08c379a0000000000000000000000000000000000000000000000000000000008152600401610e1a90612ac5565b60405180910390fd5b50565b7f43023f179164d629e1d761fb32e2db4dbd5ce417a23159d7da9cc7b56268928581565b60008060009054906101000a900473ffffffffffffffffffffffffffffffffffffffff16905090565b60006001600084815260200190815260200160002060000160008373ffffffffffffffffffffffffffffffffffffffff1673ffffffffffffffffffffffffffffffffffffffff16815260200190815260200160002060009054906101000a900460ff16905092915050565b610ee733611803565b610f26576040517f08c379a0000000000000000000000000000000000000000000000000000000008152600401610f1d90612b31565b60405180910390fd5b6000610f3284846116d2565b90506000600d6000838152602001908152602001600020541115610f8b576040517f08c379a0000000000000000000000000000000000000000000000000000000008152600401610f8290612b9d565b60405180910390fd5b600042905080600d6000848152602001908152602001600020819055506001600654610fb79190612049565b600681905550610fc985853386611bd1565b827f9b2bc1bf6068340d348c0d082cb97643aa5d83704e79076321472872e06c4962868633604051610ffd93929190612bbd565b60405180910390a25050505050565b61101533610b09565b611054576040517f08c379a000000000000000000000000000000000000000000000000000000000815260040161104b90612c40565b60405180910390fd5b60006003811115611068576110676124e8565b5b600b60008473ffffffffffffffffffffffffffffffffffffffff1673ffffffffffffffffffffffffffffffffffffffff16815260200190815260200160002060009054906101000a900460ff1660038111156110c7576110c66124e8565b5b14611107576040517f08c379a00000000000000000000000000000000000000000000000000000000081526004016110fe90612cd2565b60405180910390fd5b60008111806111165750600381105b611155576040517f08c379a000000000000000000000000000000000000000000000000000000000815260040161114c90612d3e565b60405180910390fd5b60006001821415611184577fa26228957b4ff1ee8d2f4555d58f130924b7939446a6af38afd42a510a51fbb490505b60028214156111b1577f43023f179164d629e1d761fb32e2db4dbd5ce417a23159d7da9cc7b56268928590505b6111bb8184610b43565b6001600b60008573ffffffffffffffffffffffffffffffffffffffff1673ffffffffffffffffffffffffffffffffffffffff16815260200190815260200160002060006101000a81548160ff0219169083600381111561121e5761121d6124e8565b5b02179055506000429050806001600381111561123d5761123c6124e8565b5b8573ffffffffffffffffffffffffffffffffffffffff167f45944c4a3a588fdcfc8dd84a7bde60a498bf1b48f514e8b965216c9d8ed11c5960405160405180910390a450505050565b6000801b81565b600a5481565b61129b6118a6565b73ffffffffffffffffffffffffffffffffffffffff166112b9610e4a565b73ffffffffffffffffffffffffffffffffffffffff161461130f576040517f08c379a000000000000000000000000000000000000000000000000000000000815260040161130690612ac5565b60405180910390fd5b565b60095481565b60065481565b600080600c60008473ffffffffffffffffffffffffffffffffffffffff1673ffffffffffffffffffffffffffffffffffffffff16815260200190815260200160002054146113a0576040517f08c379a000000000000000000000000000000000000000000000000000000000815260040161139790612daa565b60405180910390fd5b6001600a546113af9190612dca565b34146113f0576040517f08c379a00000000000000000000000000000000000000000000000000000000081526004016113e790612e96565b60405180910390fd5b34600960008282546114029190612049565b925050819055506114476040518060400160405280601e81526020017f41646d696e206170706c69636174696f6e206665652072656365697665640000815250611c73565b6114546000801b83610b43565b6001600b60008473ffffffffffffffffffffffffffffffffffffffff1673ffffffffffffffffffffffffffffffffffffffff16815260200190815260200160002060006101000a81548160ff021916908360038111156114b7576114b66124e8565b5b0217905550600042905080600160038111156114d6576114d56124e8565b5b8473ffffffffffffffffffffffffffffffffffffffff167f45944c4a3a588fdcfc8dd84a7bde60a498bf1b48f514e8b965216c9d8ed11c5960405160405180910390a461153c6040518060600160405280602481526020016132e8602491398483611d0c565b80915050919050565b61154e33610d74565b61158d576040517f08c379a000000000000000000000000000000000000000000000000000000000815260040161158490612f02565b60405180910390fd5b600061159983836116d2565b90506000600d600083815260200190815260200160002054116115f1576040517f08c379a00000000000000000000000000000000000000000000000000000000081526004016115e890612f94565b60405180910390fd5b61162f6040518060400160405280601781526020017f7375627363726962656420746f2072656167656e744944000000000000000000815250611c73565b81833373ffffffffffffffffffffffffffffffffffffffff167fce5cdbed66288747ca80d64fbf8ebe369edbe0a04856b0fedb7a2198f53ca08760405160405180910390a4505050565b7fa26228957b4ff1ee8d2f4555d58f130924b7939446a6af38afd42a510a51fbb481565b6116a682610ae9565b6116b7816116b26118a6565b6118ae565b6116c18383611a2b565b505050565b60025481565b60075481565b600082826040516020016116e7929190612fb4565b60405160208183030381529060405280519060200120905092915050565b60085481565b6117136118a6565b73ffffffffffffffffffffffffffffffffffffffff16611731610e4a565b73ffffffffffffffffffffffffffffffffffffffff1614611787576040517f08c379a000000000000000000000000000000000000000000000000000000000815260040161177e90612ac5565b60405180910390fd5b600073ffffffffffffffffffffffffffffffffffffffff168173ffffffffffffffffffffffffffffffffffffffff1614156117f7576040517f08c379a00000000000000000000000000000000000000000000000000000000081526004016117ee9061304f565b60405180910390fd5b61180081611b0d565b50565b600061182f7fa26228957b4ff1ee8d2f4555d58f130924b7939446a6af38afd42a510a51fbb483610e73565b9050919050565b60035481565b60007f01ffc9a7000000000000000000000000000000000000000000000000000000007bffffffffffffffffffffffffffffffffffffffffffffffffffffffff1916827bffffffffffffffffffffffffffffffffffffffffffffffffffffffff1916149050919050565b600033905090565b6118b88282610e73565b611947576118dd8173ffffffffffffffffffffffffffffffffffffffff166014611dab565b6118eb8360001c6020611dab565b6040516020016118fc929190613143565b6040516020818303038152906040526040517f08c379a000000000000000000000000000000000000000000000000000000000815260040161193e919061317d565b60405180910390fd5b5050565b6119558282610e73565b611a2757600180600084815260200190815260200160002060000160008373ffffffffffffffffffffffffffffffffffffffff1673ffffffffffffffffffffffffffffffffffffffff16815260200190815260200160002060006101000a81548160ff0219169083151502179055506119cc6118a6565b73ffffffffffffffffffffffffffffffffffffffff168173ffffffffffffffffffffffffffffffffffffffff16837f2f8788117e7eff1d82e926ec794901d17c78024a50270940304540a733656f0d60405160405180910390a45b5050565b611a358282610e73565b15611b095760006001600084815260200190815260200160002060000160008373ffffffffffffffffffffffffffffffffffffffff1673ffffffffffffffffffffffffffffffffffffffff16815260200190815260200160002060006101000a81548160ff021916908315150217905550611aae6118a6565b73ffffffffffffffffffffffffffffffffffffffff168173ffffffffffffffffffffffffffffffffffffffff16837ff6391f5c32d9c69d2a47ea670b442974b53935d1edc7fd64eb21e047a839171b60405160405180910390a45b5050565b60008060009054906101000a900473ffffffffffffffffffffffffffffffffffffffff169050816000806101000a81548173ffffffffffffffffffffffffffffffffffffffff021916908373ffffffffffffffffffffffffffffffffffffffff1602179055508173ffffffffffffffffffffffffffffffffffffffff168173ffffffffffffffffffffffffffffffffffffffff167f8be0079c531659141344cd1fd0a4f28419497f9722a3daafe3b4186f6b6457e060405160405180910390a35050565b611c6d84848484604051602401611beb949392919061319f565b6040516020818303038152906040527f610ba8c0000000000000000000000000000000000000000000000000000000007bffffffffffffffffffffffffffffffffffffffffffffffffffffffff19166020820180517bffffffffffffffffffffffffffffffffffffffffffffffffffffffff8381831617835250505050611fe7565b50505050565b611d0981604051602401611c87919061317d565b6040516020818303038152906040527f41304fac000000000000000000000000000000000000000000000000000000007bffffffffffffffffffffffffffffffffffffffffffffffffffffffff19166020820180517bffffffffffffffffffffffffffffffffffffffffffffffffffffffff8381831617835250505050611fe7565b50565b611da6838383604051602401611d24939291906131e4565b6040516020818303038152906040527f07c81217000000000000000000000000000000000000000000000000000000007bffffffffffffffffffffffffffffffffffffffffffffffffffffffff19166020820180517bffffffffffffffffffffffffffffffffffffffffffffffffffffffff8381831617835250505050611fe7565b505050565b606060006002836002611dbe9190612dca565b611dc89190612049565b67ffffffffffffffff811115611de157611de0612211565b5b6040519080825280601f01601f191660200182016040528015611e135781602001600182028036833780820191505090505b5090507f300000000000000000000000000000000000000000000000000000000000000081600081518110611e4b57611e4a613222565b5b60200101907effffffffffffffffffffffffffffffffffffffffffffffffffffffffffffff1916908160001a9053507f780000000000000000000000000000000000000000000000000000000000000081600181518110611eaf57611eae613222565b5b60200101907effffffffffffffffffffffffffffffffffffffffffffffffffffffffffffff1916908160001a90535060006001846002611eef9190612dca565b611ef99190612049565b90505b6001811115611f99577f3031323334353637383961626364656600000000000000000000000000000000600f861660108110611f3b57611f3a613222565b5b1a60f81b828281518110611f5257611f51613222565b5b60200101907effffffffffffffffffffffffffffffffffffffffffffffffffffffffffffff1916908160001a905350600485901c945080611f9290613251565b9050611efc565b5060008414611fdd576040517f08c379a0000000000000000000000000000000000000000000000000000000008152600401611fd4906132c7565b60405180910390fd5b8091505092915050565b60008151905060006a636f6e736f6c652e6c6f679050602083016000808483855afa5050505050565b6000819050919050565b7f4e487b7100000000000000000000000000000000000000000000000000000000600052601160045260246000fd5b600061205482612010565b915061205f83612010565b9250827fffffffffffffffffffffffffffffffffffffffffffffffffffffffffffffffff038211156120945761209361201a565b5b828201905092915050565b600073ffffffffffffffffffffffffffffffffffffffff82169050919050565b60006120ca8261209f565b9050919050565b6120da816120bf565b82525050565b60006020820190506120f560008301846120d1565b92915050565b6000604051905090565b600080fd5b600080fd5b60007fffffffff0000000000000000000000000000000000000000000000000000000082169050919050565b6121448161210f565b811461214f57600080fd5b50565b6000813590506121618161213b565b92915050565b60006020828403121561217d5761217c612105565b5b600061218b84828501612152565b91505092915050565b60008115159050919050565b6121a981612194565b82525050565b60006020820190506121c460008301846121a0565b92915050565b6121d381612010565b81146121de57600080fd5b50565b6000813590506121f0816121ca565b92915050565b600080fd5b600080fd5b6000601f19601f8301169050919050565b7f4e487b7100000000000000000000000000000000000000000000000000000000600052604160045260246000fd5b61224982612200565b810181811067ffffffffffffffff8211171561226857612267612211565b5b80604052505050565b600061227b6120fb565b90506122878282612240565b919050565b600067ffffffffffffffff8211156122a7576122a6612211565b5b6122b082612200565b9050602081019050919050565b82818337600083830152505050565b60006122df6122da8461228c565b612271565b9050828152602081018484840111156122fb576122fa6121fb565b5b6123068482856122bd565b509392505050565b600082601f830112612323576123226121f6565b5b81356123338482602086016122cc565b91505092915050565b6000806040838503121561235357612352612105565b5b6000612361858286016121e1565b925050602083013567ffffffffffffffff8111156123825761238161210a565b5b61238e8582860161230e565b9150509250929050565b6000819050919050565b6123ab81612398565b81146123b657600080fd5b50565b6000813590506123c8816123a2565b92915050565b6000602082840312156123e4576123e3612105565b5b60006123f2848285016123b9565b91505092915050565b61240481612398565b82525050565b600060208201905061241f60008301846123fb565b92915050565b61242e816120bf565b811461243957600080fd5b50565b60008135905061244b81612425565b92915050565b60006020828403121561246757612466612105565b5b60006124758482850161243c565b91505092915050565b6000806040838503121561249557612494612105565b5b60006124a3858286016123b9565b92505060206124b48582860161243c565b9150509250929050565b6124c781612010565b82525050565b60006020820190506124e260008301846124be565b92915050565b7f4e487b7100000000000000000000000000000000000000000000000000000000600052602160045260246000fd5b60048110612528576125276124e8565b5b50565b600081905061253982612517565b919050565b60006125498261252b565b9050919050565b6125598161253e565b82525050565b60006020820190506125746000830184612550565b92915050565b600080fd5b600080fd5b60008083601f84011261259a576125996121f6565b5b8235905067ffffffffffffffff8111156125b7576125b661257a565b5b6020830191508360018202830111156125d3576125d261257f565b5b9250929050565b600080602083850312156125f1576125f0612105565b5b600083013567ffffffffffffffff81111561260f5761260e61210a565b5b61261b85828601612584565b92509250509250929050565b600067ffffffffffffffff82111561264257612641612211565b5b61264b82612200565b9050602081019050919050565b600061266b61266684612627565b612271565b905082815260208101848484011115612687576126866121fb565b5b6126928482856122bd565b509392505050565b600082601f8301126126af576126ae6121f6565b5b81356126bf848260208601612658565b91505092915050565b6000602082840312156126de576126dd612105565b5b600082013567ffffffffffffffff8111156126fc576126fb61210a565b5b6127088482850161269a565b91505092915050565b600081519050919050565b600082825260208201905092915050565b60005b8381101561274b578082015181840152602081019050612730565b8381111561275a576000848401525b50505050565b600061276b82612711565b612775818561271c565b935061278581856020860161272d565b61278e81612200565b840191505092915050565b60006040820190506127ae60008301856121a0565b81810360208301526127c08184612760565b90509392505050565b6000806000606084860312156127e2576127e1612105565b5b60006127f0868287016121e1565b9350506020612801868287016121e1565b9250506040612812868287016121e1565b9150509250925092565b6000806040838503121561283357612832612105565b5b60006128418582860161243c565b9250506020612852858286016121e1565b9150509250929050565b6000806040838503121561287357612872612105565b5b6000612881858286016121e1565b9250506020612892858286016121e1565b9150509250929050565b600082825260208201905092915050565b7f54686973207573657220697320616c726561647920726567697374657265642c60008201527f20636f6e746163742041646d696e000000000000000000000000000000000000602082015250565b6000612909602e8361289c565b9150612914826128ad565b604082019050919050565b60006020820190508181036000830152612938816128fc565b9050919050565b600081519050919050565b60006129558261293f565b61295f818561289c565b935061296f81856020860161272d565b61297881612200565b840191505092915050565b600060408201905061299860008301856124be565b81810360208301526129aa818461294a565b90509392505050565b7f416363657373436f6e74726f6c3a2063616e206f6e6c792072656e6f756e636560008201527f20726f6c657320666f722073656c660000000000000000000000000000000000602082015250565b6000612a0f602f8361289c565b9150612a1a826129b3565b604082019050919050565b60006020820190508181036000830152612a3e81612a02565b9050919050565b6000612a5082612010565b9150612a5b83612010565b925082821015612a6e57612a6d61201a565b5b828203905092915050565b7f4f776e61626c653a2063616c6c6572206973206e6f7420746865206f776e6572600082015250565b6000612aaf60208361289c565b9150612aba82612a79565b602082019050919050565b60006020820190508181036000830152612ade81612aa2565b9050919050565b7f5265737472696374656420746f2050726f647563657273000000000000000000600082015250565b6000612b1b60178361289c565b9150612b2682612ae5565b602082019050919050565b60006020820190508181036000830152612b4a81612b0e565b9050919050565b7f52656167656e7420616c7265616479206578697374696e672100000000000000600082015250565b6000612b8760198361289c565b9150612b9282612b51565b602082019050919050565b60006020820190508181036000830152612bb681612b7a565b9050919050565b6000606082019050612bd260008301866124be565b612bdf60208301856124be565b612bec60408301846120d1565b949350505050565b7f5265737472696374656420746f2061646d696e00000000000000000000000000600082015250565b6000612c2a60138361289c565b9150612c3582612bf4565b602082019050919050565b60006020820190508181036000830152612c5981612c1d565b9050919050565b7f55736572206973206e6f7420696e2070656e64696e67207374617465206f722060008201527f77726f6e67206164647265737300000000000000000000000000000000000000602082015250565b6000612cbc602d8361289c565b9150612cc782612c60565b604082019050919050565b60006020820190508181036000830152612ceb81612caf565b9050919050565b7f496e76616c696420726f6c65206e756d62657221000000000000000000000000600082015250565b6000612d2860148361289c565b9150612d3382612cf2565b602082019050919050565b60006020820190508181036000830152612d5781612d1b565b9050919050565b7f546869732041646d696e20697320616c72656164792072656769737465726564600082015250565b6000612d9460208361289c565b9150612d9f82612d5e565b602082019050919050565b60006020820190508181036000830152612dc381612d87565b9050919050565b6000612dd582612010565b9150612de083612010565b9250817fffffffffffffffffffffffffffffffffffffffffffffffffffffffffffffffff0483118215151615612e1957612e1861201a565b5b828202905092915050565b7f56616c7565207472616e736665726564206973206e6f7420656e6f756768207460008201527f6f20636f7665722041646d696e206170706c69636174696f6e00000000000000602082015250565b6000612e8060398361289c565b9150612e8b82612e24565b604082019050919050565b60006020820190508181036000830152612eaf81612e73565b9050919050565b7f5265737472696374656420746f20636c69656e74730000000000000000000000600082015250565b6000612eec60158361289c565b9150612ef782612eb6565b602082019050919050565b60006020820190508181036000830152612f1b81612edf565b9050919050565b7f536f6c6963697465642052656167656e7420646f65736e27742065786973742c60008201527f20636f6e746163742041646d696e000000000000000000000000000000000000602082015250565b6000612f7e602e8361289c565b9150612f8982612f22565b604082019050919050565b60006020820190508181036000830152612fad81612f71565b9050919050565b6000604082019050612fc960008301856124be565b612fd660208301846124be565b9392505050565b7f4f776e61626c653a206e6577206f776e657220697320746865207a65726f206160008201527f6464726573730000000000000000000000000000000000000000000000000000602082015250565b600061303960268361289c565b915061304482612fdd565b604082019050919050565b600060208201905081810360008301526130688161302c565b9050919050565b600081905092915050565b7f416363657373436f6e74726f6c3a206163636f756e7420000000000000000000600082015250565b60006130b060178361306f565b91506130bb8261307a565b601782019050919050565b60006130d18261293f565b6130db818561306f565b93506130eb81856020860161272d565b80840191505092915050565b7f206973206d697373696e6720726f6c6520000000000000000000000000000000600082015250565b600061312d60118361306f565b9150613138826130f7565b601182019050919050565b600061314e826130a3565b915061315a82856130c6565b915061316582613120565b915061317182846130c6565b91508190509392505050565b60006020820190508181036000830152613197818461294a565b905092915050565b60006080820190506131b460008301876124be565b6131c160208301866124be565b6131ce60408301856120d1565b6131db60608301846124be565b95945050505050565b600060608201905081810360008301526131fe818661294a565b905061320d60208301856120d1565b61321a60408301846124be565b949350505050565b7f4e487b7100000000000000000000000000000000000000000000000000000000600052603260045260246000fd5b600061325c82612010565b915060008214156132705761326f61201a565b5b600182039050919050565b7f537472696e67733a20686578206c656e67746820696e73756666696369656e74600082015250565b60006132b160208361289c565b91506132bc8261327b565b602082019050919050565b600060208201905081810360008301526132e0816132a4565b905091905056fe616464726573733a202573206772616e7465642061646d696e20726f6c65206f6e202573a2646970667358221220be529bdf40bd0fbd177cd5fe46037979c47552eeb2567b92bb9e3cc2ae3b3b2b64736f6c634300080a0033",
  "devdoc": {
    "events": {
      "ReagentCreation(uint256,uint256,address,uint256)": {
        "details": "EVENTS:"
      }
    },
    "kind": "dev",
    "methods": {
      "checkUpkeep(bytes)": {
        "details": "Oracle functions:      Oracle used: Chainlink's keeper      the keeper uses checkUpkeep and performUpkee functions.      Off-chain a keeper node runs a simulation of the checkUpkeep function.      when a condition is met, the keeper broadcasts      a transaction to the blockchain executing the       performUpkeep function. When the performUpkeep function is executed      an email is sent to all the Clients whose reagent has expired.      When the current date corresponds to the first day of the month, the       condition is met. However, for testing purposes, when the condition will       be met every hour.  ",
        "params": {
          "": "/*checkData*/ (not used in this case)"
        },
        "returns": {
          "upkeepNeeded": "(if true the keeper executes the performUpkeep function)         /*performData*/ not used  "
        }
      },
      "constructor": {
        "details": "CONSTRUCTOR:"
      },
      "createReagent(uint256,uint256,uint256)": {
        "details": "PRODUCER FUNCTIONS:"
      },
      "getRoleAdmin(bytes32)": {
        "details": "Returns the admin role that controls `role`. See {grantRole} and {revokeRole}. To change a role's admin, use {_setRoleAdmin}."
      },
      "grantRole(bytes32,address)": {
        "details": "Grants `role` to `account`. If `account` had not been already granted `role`, emits a {RoleGranted} event. Requirements: - the caller must have ``role``'s admin role."
      },
      "hasRole(bytes32,address)": {
        "details": "Returns `true` if `account` has been granted `role`."
      },
      "isAdmin(address)": {
        "details": "checks if the message sender is the admin   ",
        "params": {
          "userAddress": "corresponds to the address of the user invoking the function"
        },
        "returns": {
          "_0": "bool, true if the user address belongs to the admin role"
        }
      },
      "isClient(address)": {
        "details": "Returns true if the userAddress belongs to a client"
      },
      "isProducer(address)": {
        "details": "Returns true if the userAddress belongs to a producer"
      },
      "owner()": {
        "details": "Returns the address of the current owner."
      },
      "performUpkeep(bytes)": {
        "params": {
          "": "/*performData*/ (not used in this case)"
        }
      },
      "registerAdmin(address)": {
        "details": "ADMIN REGISTRATION FUNCTIONS:        "
      },
      "registerUser(uint256,string)": {
        "details": "USER REGISTRATION FUNCTIONS:    "
      },
      "renounceOwnership()": {
        "details": "Leaves the contract without owner. It will not be possible to call `onlyOwner` functions anymore. Can only be called by the current owner. NOTE: Renouncing ownership will leave the contract without an owner, thereby removing any functionality that is only available to the owner."
      },
      "renounceRole(bytes32,address)": {
        "details": "Revokes `role` from the calling account. Roles are often managed via {grantRole} and {revokeRole}: this function's purpose is to provide a mechanism for accounts to lose their privileges if they are compromised (such as when a trusted device is misplaced). If the calling account had been granted `role`, emits a {RoleRevoked} event. Requirements: - the caller must be `account`."
      },
      "revokeRole(bytes32,address)": {
        "details": "Revokes `role` from `account`. If `account` had been granted `role`, emits a {RoleRevoked} event. Requirements: - the caller must have ``role``'s admin role."
      },
      "subscribeToAReagent(uint256,uint256)": {
        "details": "CLIENT FUNCTIONS:"
      },
      "supportsInterface(bytes4)": {
        "details": "See {IERC165-supportsInterface}."
      },
      "transferOwnership(address)": {
        "details": "Transfers ownership of the contract to a new account (`newOwner`). Can only be called by the current owner."
      }
    },
    "stateVariables": {
      "PRODUCER": {
        "details": "CONSTANTS:"
      },
      "initialTimestamp": {
        "details": "VARIABLES:"
      },
      "intervalTime": {
        "details": "to ease the process of testing, set this variable to 5 minutes(300 seconds);"
      },
      "userAddressToStateOfUser": {
        "details": "MAPPINGS:"
      }
    },
    "version": 1
  },
  "userdoc": {
    "events": {
      "ReagentCreation(uint256,uint256,address,uint256)": {
        "notice": "***********************************************************************"
      }
    },
    "kind": "user",
    "methods": {
      "PRODUCER()": {
        "notice": "***********************************************************************"
      },
      "constructor": {
        "notice": "***********************************************************************"
      },
      "initialTimestamp()": {
        "notice": "***********************************************************************"
      }
    },
    "version": 1
  },
  "storageLayout": {
    "storage": [
      {
        "astId": 406,
        "contract": "contracts/Charlize.sol:Charlize",
        "label": "_owner",
        "offset": 0,
        "slot": "0",
        "type": "t_address"
      },
      {
        "astId": 43,
        "contract": "contracts/Charlize.sol:Charlize",
        "label": "_roles",
        "offset": 0,
        "slot": "1",
        "type": "t_mapping(t_bytes32,t_struct(RoleData)38_storage)"
      },
      {
        "astId": 778,
        "contract": "contracts/Charlize.sol:Charlize",
        "label": "initialTimestamp",
        "offset": 0,
        "slot": "2",
        "type": "t_uint256"
      },
      {
        "astId": 781,
        "contract": "contracts/Charlize.sol:Charlize",
        "label": "intervalTime",
        "offset": 0,
        "slot": "3",
        "type": "t_uint256"
      },
      {
        "astId": 783,
        "contract": "contracts/Charlize.sol:Charlize",
        "label": "lastUpkeep",
        "offset": 0,
        "slot": "4",
        "type": "t_uint256"
      },
      {
        "astId": 785,
        "contract": "contracts/Charlize.sol:Charlize",
        "label": "counter",
        "offset": 0,
        "slot": "5",
        "type": "t_uint256"
      },
      {
        "astId": 787,
        "contract": "contracts/Charlize.sol:Charlize",
        "label": "reagentCount",
        "offset": 0,
        "slot": "6",
        "type": "t_uint256"
      },
      {
        "astId": 789,
        "contract": "contracts/Charlize.sol:Charlize",
        "label": "producerCount",
        "offset": 0,
        "slot": "7",
        "type": "t_uint256"
      },
      {
        "astId": 791,
        "contract": "contracts/Charlize.sol:Charlize",
        "label": "userApplicationCount",
        "offset": 0,
        "slot": "8",
        "type": "t_uint256"
      },
      {
        "astId": 793,
        "contract": "contracts/Charlize.sol:Charlize",
        "label": "balance",
        "offset": 0,
        "slot": "9",
        "type": "t_uint256"
      },
      {
        "astId": 795,
        "contract": "contracts/Charlize.sol:Charlize",
        "label": "adminApplicationFee",
        "offset": 0,
        "slot": "10",
        "type": "t_uint256"
      },
      {
        "astId": 817,
        "contract": "contracts/Charlize.sol:Charlize",
        "label": "userAddressToStateOfUser",
        "offset": 0,
        "slot": "11",
        "type": "t_mapping(t_address,t_enum(UserState)877)"
      },
      {
        "astId": 821,
        "contract": "contracts/Charlize.sol:Charlize",
        "label": "userAddressToRegistrationDate",
        "offset": 0,
        "slot": "12",
        "type": "t_mapping(t_address,t_uint256)"
      },
      {
        "astId": 825,
        "contract": "contracts/Charlize.sol:Charlize",
        "label": "reagentIDToReagentCreationDate",
        "offset": 0,
        "slot": "13",
        "type": "t_mapping(t_bytes32,t_uint256)"
      }
    ],
    "types": {
      "t_address": {
        "encoding": "inplace",
        "label": "address",
        "numberOfBytes": "20"
      },
      "t_bool": {
        "encoding": "inplace",
        "label": "bool",
        "numberOfBytes": "1"
      },
      "t_bytes32": {
        "encoding": "inplace",
        "label": "bytes32",
        "numberOfBytes": "32"
      },
      "t_enum(UserState)877": {
        "encoding": "inplace",
        "label": "enum Charlize.UserState",
        "numberOfBytes": "1"
      },
      "t_mapping(t_address,t_bool)": {
        "encoding": "mapping",
        "key": "t_address",
        "label": "mapping(address => bool)",
        "numberOfBytes": "32",
        "value": "t_bool"
      },
      "t_mapping(t_address,t_enum(UserState)877)": {
        "encoding": "mapping",
        "key": "t_address",
        "label": "mapping(address => enum Charlize.UserState)",
        "numberOfBytes": "32",
        "value": "t_enum(UserState)877"
      },
      "t_mapping(t_address,t_uint256)": {
        "encoding": "mapping",
        "key": "t_address",
        "label": "mapping(address => uint256)",
        "numberOfBytes": "32",
        "value": "t_uint256"
      },
      "t_mapping(t_bytes32,t_struct(RoleData)38_storage)": {
        "encoding": "mapping",
        "key": "t_bytes32",
        "label": "mapping(bytes32 => struct AccessControl.RoleData)",
        "numberOfBytes": "32",
        "value": "t_struct(RoleData)38_storage"
      },
      "t_mapping(t_bytes32,t_uint256)": {
        "encoding": "mapping",
        "key": "t_bytes32",
        "label": "mapping(bytes32 => uint256)",
        "numberOfBytes": "32",
        "value": "t_uint256"
      },
      "t_struct(RoleData)38_storage": {
        "encoding": "inplace",
        "label": "struct AccessControl.RoleData",
        "members": [
          {
            "astId": 35,
            "contract": "contracts/Charlize.sol:Charlize",
            "label": "members",
            "offset": 0,
            "slot": "0",
            "type": "t_mapping(t_address,t_bool)"
          },
          {
            "astId": 37,
            "contract": "contracts/Charlize.sol:Charlize",
            "label": "adminRole",
            "offset": 0,
            "slot": "1",
            "type": "t_bytes32"
          }
        ],
        "numberOfBytes": "64"
      },
      "t_uint256": {
        "encoding": "inplace",
        "label": "uint256",
        "numberOfBytes": "32"
      }
    }
  }
}