{
  "address": "0xe7f1725E7734CE288F8367e1Bb143E90bb3F0512",
  "abi": [
    {
      "inputs": [
        {
          "internalType": "uint256",
          "name": "_initialTimestamp",
          "type": "uint256"
        },
        {
          "internalType": "uint256",
          "name": "_intervalTime",
          "type": "uint256"
        },
        {
          "internalType": "address",
          "name": "_admin",
          "type": "address"
        },
        {
          "internalType": "uint256",
          "name": "_adminApplicationFee",
          "type": "uint256"
        }
      ],
      "stateMutability": "nonpayable",
      "type": "constructor"
    },
    {
      "anonymous": false,
      "inputs": [
        {
          "indexed": true,
          "internalType": "address",
          "name": "userAddress",
          "type": "address"
        },
        {
          "indexed": true,
          "internalType": "enum Charlize.UserState",
          "name": "stateOfUser",
          "type": "uint8"
        },
        {
          "indexed": true,
          "internalType": "uint256",
          "name": "registrationDate",
          "type": "uint256"
        }
      ],
      "name": "AccessGrantedToAdmin",
      "type": "event"
    },
    {
      "anonymous": false,
      "inputs": [
        {
          "indexed": true,
          "internalType": "address",
          "name": "userAddress",
          "type": "address"
        },
        {
          "indexed": true,
          "internalType": "enum Charlize.UserState",
          "name": "stateOfUser",
          "type": "uint8"
        },
        {
          "indexed": true,
          "internalType": "uint256",
          "name": "registrationDate",
          "type": "uint256"
        }
      ],
      "name": "AccessGrantedToUser",
      "type": "event"
    },
    {
      "anonymous": false,
      "inputs": [],
      "name": "CheckExpirationDate",
      "type": "event"
    },
    {
      "anonymous": false,
      "inputs": [
        {
          "indexed": false,
          "internalType": "address",
          "name": "adminApplicantAddress",
          "type": "address"
        }
      ],
      "name": "LogDeposit",
      "type": "event"
    },
    {
      "anonymous": false,
      "inputs": [
        {
          "indexed": true,
          "internalType": "address",
          "name": "previousOwner",
          "type": "address"
        },
        {
          "indexed": true,
          "internalType": "address",
          "name": "newOwner",
          "type": "address"
        }
      ],
      "name": "OwnershipTransferred",
      "type": "event"
    },
    {
      "anonymous": false,
      "inputs": [
        {
          "indexed": false,
          "internalType": "string",
          "name": "poppedAddress",
          "type": "string"
        }
      ],
      "name": "PoppedAddressFromPendingStateArray",
      "type": "event"
    },
    {
      "anonymous": false,
      "inputs": [
        {
          "indexed": false,
          "internalType": "uint256",
          "name": "reagentNDC",
          "type": "uint256"
        },
        {
          "indexed": false,
          "internalType": "uint256",
          "name": "reagentLotNumber",
          "type": "uint256"
        },
        {
          "indexed": false,
          "internalType": "address",
          "name": "producerAddress",
          "type": "address"
        },
        {
          "indexed": true,
          "internalType": "uint256",
          "name": "expirationDate",
          "type": "uint256"
        }
      ],
      "name": "ReagentCreation",
      "type": "event"
    },
    {
      "anonymous": false,
      "inputs": [
        {
          "indexed": true,
          "internalType": "bytes32",
          "name": "role",
          "type": "bytes32"
        },
        {
          "indexed": true,
          "internalType": "bytes32",
          "name": "previousAdminRole",
          "type": "bytes32"
        },
        {
          "indexed": true,
          "internalType": "bytes32",
          "name": "newAdminRole",
          "type": "bytes32"
        }
      ],
      "name": "RoleAdminChanged",
      "type": "event"
    },
    {
      "anonymous": false,
      "inputs": [
        {
          "indexed": true,
          "internalType": "bytes32",
          "name": "role",
          "type": "bytes32"
        },
        {
          "indexed": true,
          "internalType": "address",
          "name": "account",
          "type": "address"
        },
        {
          "indexed": true,
          "internalType": "address",
          "name": "sender",
          "type": "address"
        }
      ],
      "name": "RoleGranted",
      "type": "event"
    },
    {
      "anonymous": false,
      "inputs": [
        {
          "indexed": true,
          "internalType": "bytes32",
          "name": "role",
          "type": "bytes32"
        },
        {
          "indexed": true,
          "internalType": "address",
          "name": "account",
          "type": "address"
        },
        {
          "indexed": true,
          "internalType": "address",
          "name": "sender",
          "type": "address"
        }
      ],
      "name": "RoleRevoked",
      "type": "event"
    },
    {
      "anonymous": false,
      "inputs": [
        {
          "indexed": true,
          "internalType": "address",
          "name": "clientAddress",
          "type": "address"
        },
        {
          "indexed": true,
          "internalType": "uint256",
          "name": "reagentNDC",
          "type": "uint256"
        },
        {
          "indexed": true,
          "internalType": "uint256",
          "name": "reagentLotNumber",
          "type": "uint256"
        }
      ],
      "name": "SubscribedToReagent",
      "type": "event"
    },
    {
      "anonymous": false,
      "inputs": [
        {
          "indexed": true,
          "internalType": "address",
          "name": "userAddress",
          "type": "address"
        },
        {
          "indexed": false,
          "internalType": "uint256",
          "name": "roleNumber",
          "type": "uint256"
        },
        {
          "indexed": false,
          "internalType": "string",
          "name": "email",
          "type": "string"
        },
        {
          "indexed": true,
          "internalType": "enum Charlize.UserState",
          "name": "stateOfUser",
          "type": "uint8"
        },
        {
          "indexed": true,
          "internalType": "uint256",
          "name": "registrationDate",
          "type": "uint256"
        }
      ],
      "name": "UserRegistered",
      "type": "event"
    },
    {
      "stateMutability": "nonpayable",
      "type": "fallback"
    },
    {
      "inputs": [],
      "name": "ADMIN",
      "outputs": [
        {
          "internalType": "bytes32",
          "name": "",
          "type": "bytes32"
        }
      ],
      "stateMutability": "view",
      "type": "function"
    },
    {
      "inputs": [],
      "name": "CLIENT",
      "outputs": [
        {
          "internalType": "bytes32",
          "name": "",
          "type": "bytes32"
        }
      ],
      "stateMutability": "view",
      "type": "function"
    },
    {
      "inputs": [],
      "name": "DEFAULT_ADMIN_ROLE",
      "outputs": [
        {
          "internalType": "bytes32",
          "name": "",
          "type": "bytes32"
        }
      ],
      "stateMutability": "view",
      "type": "function"
    },
    {
      "inputs": [],
      "name": "PRODUCER",
      "outputs": [
        {
          "internalType": "bytes32",
          "name": "",
          "type": "bytes32"
        }
      ],
      "stateMutability": "view",
      "type": "function"
    },
    {
      "inputs": [
        {
          "internalType": "uint256",
          "name": "",
          "type": "uint256"
        }
      ],
      "name": "addressesInPendingState",
      "outputs": [
        {
          "internalType": "address",
          "name": "",
          "type": "address"
        }
      ],
      "stateMutability": "view",
      "type": "function"
    },
    {
      "inputs": [],
      "name": "adminApplicationFee",
      "outputs": [
        {
          "internalType": "uint256",
          "name": "",
          "type": "uint256"
        }
      ],
      "stateMutability": "view",
      "type": "function"
    },
    {
      "inputs": [],
      "name": "balance",
      "outputs": [
        {
          "internalType": "uint256",
          "name": "",
          "type": "uint256"
        }
      ],
      "stateMutability": "view",
      "type": "function"
    },
    {
      "inputs": [],
      "name": "changeUserFromRetiredOrRejectedToPending",
      "outputs": [],
      "stateMutability": "nonpayable",
      "type": "function"
    },
    {
      "inputs": [
        {
          "internalType": "bytes",
          "name": "",
          "type": "bytes"
        }
      ],
      "name": "checkUpkeep",
      "outputs": [
        {
          "internalType": "bool",
          "name": "upkeepNeeded",
          "type": "bool"
        },
        {
          "internalType": "bytes",
          "name": "",
          "type": "bytes"
        }
      ],
      "stateMutability": "view",
      "type": "function"
    },
    {
      "inputs": [],
      "name": "counter",
      "outputs": [
        {
          "internalType": "uint256",
          "name": "",
          "type": "uint256"
        }
      ],
      "stateMutability": "view",
      "type": "function"
    },
    {
      "inputs": [
        {
          "internalType": "uint256",
          "name": "reagentNDC",
          "type": "uint256"
        },
        {
          "internalType": "uint256",
          "name": "reagentLotNumber",
          "type": "uint256"
        },
        {
          "internalType": "uint256",
          "name": "expirationDate",
          "type": "uint256"
        }
      ],
      "name": "createReagent",
      "outputs": [],
      "stateMutability": "nonpayable",
      "type": "function"
    },
    {
      "inputs": [
        {
          "internalType": "uint256",
          "name": "positionInArray",
          "type": "uint256"
        }
      ],
      "name": "getAddressInPendingState",
      "outputs": [
        {
          "internalType": "address",
          "name": "",
          "type": "address"
        }
      ],
      "stateMutability": "view",
      "type": "function"
    },
    {
      "inputs": [],
      "name": "getLengthAddressInPendingStateArray",
      "outputs": [
        {
          "internalType": "uint256",
          "name": "",
          "type": "uint256"
        }
      ],
      "stateMutability": "view",
      "type": "function"
    },
    {
      "inputs": [],
      "name": "getPendingStateAddress",
      "outputs": [
        {
          "internalType": "address",
          "name": "",
          "type": "address"
        }
      ],
      "stateMutability": "nonpayable",
      "type": "function"
    },
    {
      "inputs": [
        {
          "internalType": "bytes32",
          "name": "role",
          "type": "bytes32"
        }
      ],
      "name": "getRoleAdmin",
      "outputs": [
        {
          "internalType": "bytes32",
          "name": "",
          "type": "bytes32"
        }
      ],
      "stateMutability": "view",
      "type": "function"
    },
    {
      "inputs": [
        {
          "internalType": "address",
          "name": "userAddress",
          "type": "address"
        }
      ],
      "name": "getRoleNumberOfUserAddress",
      "outputs": [
        {
          "internalType": "uint256",
          "name": "",
          "type": "uint256"
        }
      ],
      "stateMutability": "view",
      "type": "function"
    },
    {
      "inputs": [
        {
          "internalType": "address",
          "name": "userAddress",
          "type": "address"
        }
      ],
      "name": "getUserState",
      "outputs": [
        {
          "internalType": "enum Charlize.UserState",
          "name": "",
          "type": "uint8"
        }
      ],
      "stateMutability": "view",
      "type": "function"
    },
    {
      "inputs": [
        {
          "internalType": "address",
          "name": "userAddress",
          "type": "address"
        },
        {
          "internalType": "uint256",
          "name": "roleNumber",
          "type": "uint256"
        }
      ],
      "name": "grantAccess",
      "outputs": [],
      "stateMutability": "nonpayable",
      "type": "function"
    },
    {
      "inputs": [
        {
          "internalType": "bytes32",
          "name": "role",
          "type": "bytes32"
        },
        {
          "internalType": "address",
          "name": "account",
          "type": "address"
        }
      ],
      "name": "grantRole",
      "outputs": [],
      "stateMutability": "nonpayable",
      "type": "function"
    },
    {
      "inputs": [
        {
          "internalType": "bytes32",
          "name": "role",
          "type": "bytes32"
        },
        {
          "internalType": "address",
          "name": "account",
          "type": "address"
        }
      ],
      "name": "hasRole",
      "outputs": [
        {
          "internalType": "bool",
          "name": "",
          "type": "bool"
        }
      ],
      "stateMutability": "view",
      "type": "function"
    },
    {
      "inputs": [],
      "name": "initialTimestamp",
      "outputs": [
        {
          "internalType": "uint256",
          "name": "",
          "type": "uint256"
        }
      ],
      "stateMutability": "view",
      "type": "function"
    },
    {
      "inputs": [],
      "name": "intervalTime",
      "outputs": [
        {
          "internalType": "uint256",
          "name": "",
          "type": "uint256"
        }
      ],
      "stateMutability": "view",
      "type": "function"
    },
    {
      "inputs": [
        {
          "internalType": "address",
          "name": "userAddress",
          "type": "address"
        }
      ],
      "name": "isAdmin",
      "outputs": [
        {
          "internalType": "bool",
          "name": "",
          "type": "bool"
        }
      ],
      "stateMutability": "view",
      "type": "function"
    },
    {
      "inputs": [
        {
          "internalType": "address",
          "name": "userAddress",
          "type": "address"
        }
      ],
      "name": "isClient",
      "outputs": [
        {
          "internalType": "bool",
          "name": "",
          "type": "bool"
        }
      ],
      "stateMutability": "view",
      "type": "function"
    },
    {
      "inputs": [
        {
          "internalType": "address",
          "name": "userAddress",
          "type": "address"
        }
      ],
      "name": "isProducer",
      "outputs": [
        {
          "internalType": "bool",
          "name": "",
          "type": "bool"
        }
      ],
      "stateMutability": "view",
      "type": "function"
    },
    {
      "inputs": [],
      "name": "lastUpkeep",
      "outputs": [
        {
          "internalType": "uint256",
          "name": "",
          "type": "uint256"
        }
      ],
      "stateMutability": "view",
      "type": "function"
    },
    {
      "inputs": [],
      "name": "owner",
      "outputs": [
        {
          "internalType": "address",
          "name": "",
          "type": "address"
        }
      ],
      "stateMutability": "view",
      "type": "function"
    },
    {
      "inputs": [
        {
          "internalType": "bytes",
          "name": "",
          "type": "bytes"
        }
      ],
      "name": "performUpkeep",
      "outputs": [],
      "stateMutability": "nonpayable",
      "type": "function"
    },
    {
      "inputs": [],
      "name": "popAddressInPendingState",
      "outputs": [],
      "stateMutability": "nonpayable",
      "type": "function"
    },
    {
      "inputs": [],
      "name": "producerCount",
      "outputs": [
        {
          "internalType": "uint256",
          "name": "",
          "type": "uint256"
        }
      ],
      "stateMutability": "view",
      "type": "function"
    },
    {
      "inputs": [
        {
          "internalType": "address",
          "name": "addressInPendingState",
          "type": "address"
        }
      ],
      "name": "pushAddressInPendingState",
      "outputs": [],
      "stateMutability": "nonpayable",
      "type": "function"
    },
    {
      "inputs": [],
      "name": "reagentCount",
      "outputs": [
        {
          "internalType": "uint256",
          "name": "",
          "type": "uint256"
        }
      ],
      "stateMutability": "view",
      "type": "function"
    },
    {
      "inputs": [
        {
          "internalType": "uint256",
          "name": "reagentNDC",
          "type": "uint256"
        },
        {
          "internalType": "uint256",
          "name": "reagentLotNumber",
          "type": "uint256"
        }
      ],
      "name": "reagentId",
      "outputs": [
        {
          "internalType": "bytes32",
          "name": "",
          "type": "bytes32"
        }
      ],
      "stateMutability": "pure",
      "type": "function"
    },
    {
      "inputs": [
        {
          "internalType": "address",
          "name": "adminApplicant",
          "type": "address"
        }
      ],
      "name": "registerAdmin",
      "outputs": [
        {
          "internalType": "uint256",
          "name": "",
          "type": "uint256"
        }
      ],
      "stateMutability": "payable",
      "type": "function"
    },
    {
      "inputs": [
        {
          "internalType": "uint256",
          "name": "roleNumber",
          "type": "uint256"
        },
        {
          "internalType": "string",
          "name": "email",
          "type": "string"
        }
      ],
      "name": "registerUser",
      "outputs": [],
      "stateMutability": "nonpayable",
      "type": "function"
    },
    {
      "inputs": [],
      "name": "renounceOwnership",
      "outputs": [],
      "stateMutability": "nonpayable",
      "type": "function"
    },
    {
      "inputs": [
        {
          "internalType": "bytes32",
          "name": "role",
          "type": "bytes32"
        },
        {
          "internalType": "address",
          "name": "account",
          "type": "address"
        }
      ],
      "name": "renounceRole",
      "outputs": [],
      "stateMutability": "nonpayable",
      "type": "function"
    },
    {
      "inputs": [
        {
          "internalType": "address",
          "name": "userAddress",
          "type": "address"
        }
      ],
      "name": "revokeAccess",
      "outputs": [],
      "stateMutability": "nonpayable",
      "type": "function"
    },
    {
      "inputs": [
        {
          "internalType": "bytes32",
          "name": "role",
          "type": "bytes32"
        },
        {
          "internalType": "address",
          "name": "account",
          "type": "address"
        }
      ],
      "name": "revokeRole",
      "outputs": [],
      "stateMutability": "nonpayable",
      "type": "function"
    },
    {
      "inputs": [
        {
          "internalType": "uint256",
          "name": "reagentNDC",
          "type": "uint256"
        },
        {
          "internalType": "uint256",
          "name": "reagentLotNumber",
          "type": "uint256"
        }
      ],
      "name": "subscribeToAReagent",
      "outputs": [],
      "stateMutability": "nonpayable",
      "type": "function"
    },
    {
      "inputs": [
        {
          "internalType": "bytes4",
          "name": "interfaceId",
          "type": "bytes4"
        }
      ],
      "name": "supportsInterface",
      "outputs": [
        {
          "internalType": "bool",
          "name": "",
          "type": "bool"
        }
      ],
      "stateMutability": "view",
      "type": "function"
    },
    {
      "inputs": [
        {
          "internalType": "address",
          "name": "newOwner",
          "type": "address"
        }
      ],
      "name": "transferOwnership",
      "outputs": [],
      "stateMutability": "nonpayable",
      "type": "function"
    },
    {
      "inputs": [],
      "name": "userApplicationCount",
      "outputs": [
        {
          "internalType": "uint256",
          "name": "",
          "type": "uint256"
        }
      ],
      "stateMutability": "view",
      "type": "function"
    },
    {
      "stateMutability": "payable",
      "type": "receive"
    }
  ],
  "transactionHash": "0x61826ceb92680bc70ea041110fcf169fbc2b791441af3892681eac66b924d810",
  "args": [
    1638324714,
    300,
    "0x5FbDB2315678afecb367f032d93F642f64180aa3",
    1
  ],
  "solcInputHash": "ccae6e6b5e280e539eb22699eef206db",
  "bytecode": "0x60806040523480156200001157600080fd5b5060405162003d7138038062003d71833981810160405281019062000037919062000443565b620000576200004b620000dc60201b60201c565b620000e460201b60201c565b83600281905550826003819055508360048190555080600a81905550620000886000801b33620001a860201b60201c565b620000bd7fdf8b4c520ffe197c5343c6f5aec59570151ef9a492f2c624fd45ddde6135ec426000801b620001be60201b60201c565b620000d26000801b83620001a860201b60201c565b50505050620004b5565b600033905090565b60008060009054906101000a900473ffffffffffffffffffffffffffffffffffffffff169050816000806101000a81548173ffffffffffffffffffffffffffffffffffffffff021916908373ffffffffffffffffffffffffffffffffffffffff1602179055508173ffffffffffffffffffffffffffffffffffffffff168173ffffffffffffffffffffffffffffffffffffffff167f8be0079c531659141344cd1fd0a4f28419497f9722a3daafe3b4186f6b6457e060405160405180910390a35050565b620001ba82826200022260201b60201c565b5050565b6000620001d1836200031360201b60201c565b90508160016000858152602001908152602001600020600101819055508181847fbd79b86ffe0ab8e8776151514217cd7cacd52c909f66475c3af44e129f0b00ff60405160405180910390a4505050565b6200023482826200033360201b60201c565b6200030f57600180600084815260200190815260200160002060000160008373ffffffffffffffffffffffffffffffffffffffff1673ffffffffffffffffffffffffffffffffffffffff16815260200190815260200160002060006101000a81548160ff021916908315150217905550620002b4620000dc60201b60201c565b73ffffffffffffffffffffffffffffffffffffffff168173ffffffffffffffffffffffffffffffffffffffff16837f2f8788117e7eff1d82e926ec794901d17c78024a50270940304540a733656f0d60405160405180910390a45b5050565b600060016000838152602001908152602001600020600101549050919050565b60006001600084815260200190815260200160002060000160008373ffffffffffffffffffffffffffffffffffffffff1673ffffffffffffffffffffffffffffffffffffffff16815260200190815260200160002060009054906101000a900460ff16905092915050565b600080fd5b6000819050919050565b620003b881620003a3565b8114620003c457600080fd5b50565b600081519050620003d881620003ad565b92915050565b600073ffffffffffffffffffffffffffffffffffffffff82169050919050565b60006200040b82620003de565b9050919050565b6200041d81620003fe565b81146200042957600080fd5b50565b6000815190506200043d8162000412565b92915050565b6000806000806080858703121562000460576200045f6200039e565b5b60006200047087828801620003c7565b94505060206200048387828801620003c7565b935050604062000496878288016200042c565b9250506060620004a987828801620003c7565b91505092959194509250565b6138ac80620004c56000396000f3fe6080604052600436106102605760003560e01c8063939b409f11610144578063d00d30e0116100b6578063da093fc01161007a578063da093fc014610977578063db40bcff146109b4578063ded89c07146109df578063f2fde38b14610a0a578063f552102214610a33578063fd3c914414610a7057610280565b8063d00d30e0146108a4578063d2e1da1e146108cd578063d547741f146108f8578063d6d1417114610921578063d708fe5b1461094c57610280565b8063b431b2dc11610108578063b431b2dc1461079f578063b69ef8a8146107b6578063c24db160146107e1578063c38c58131461080c578063cb1d4d8c1461083c578063ce87b7641461087957610280565b8063939b409f146106ba5780639df89256146106e3578063a217fddf1461070c578063aaabeb3614610737578063afbbb3031461076257610280565b8063416ae768116101dd578063715018a6116101a1578063715018a6146105aa57806384b7964f146105c157806385e68531146105fe5780638691a74a146106275780638da5cb5b1461065257806391d148541461067d57610280565b8063416ae768146104b25780634585e33b146104ef5780635b5b1e591461051857806361bc221a146105415780636e04ff0d1461056c57610280565b806324d7806c1161022457806324d7806c146103cd5780632a0acc6a1461040a5780632f2ff15d1461043557806336568abe1461045e5780633d7c5d3e1461048757610280565b806301ffc9a7146102d6578063034c571f146103135780631555e99a1461032a5780631c57333e14610367578063248a9ca31461039057610280565b3661028057346009600082825461027791906124ec565b92505081905550005b34801561028c57600080fd5b506000803690501461029d57600080fd5b7fd3f6be9fd42ca63d7d8f466cf84e429063ac713c319d5fd9edfa0232fc5f684d336040516102cc9190612583565b60405180910390a1005b3480156102e257600080fd5b506102fd60048036038101906102f8919061260a565b610a9b565b60405161030a9190612652565b60405180910390f35b34801561031f57600080fd5b50610328610b15565b005b34801561033657600080fd5b50610351600480360381019061034c9190612699565b610b93565b60405161035e9190612583565b60405180910390f35b34801561037357600080fd5b5061038e6004803603810190610389919061280c565b610bdb565b005b34801561039c57600080fd5b506103b760048036038101906103b2919061289e565b610dda565b6040516103c491906128da565b60405180910390f35b3480156103d957600080fd5b506103f460048036038101906103ef9190612921565b610dfa565b6040516104019190612652565b60405180910390f35b34801561041657600080fd5b5061041f610e10565b60405161042c91906128da565b60405180910390f35b34801561044157600080fd5b5061045c6004803603810190610457919061294e565b610e34565b005b34801561046a57600080fd5b506104856004803603810190610480919061294e565b610e5d565b005b34801561049357600080fd5b5061049c610ee0565b6040516104a9919061299d565b60405180910390f35b3480156104be57600080fd5b506104d960048036038101906104d49190612921565b610ee6565b6040516104e69190612a2f565b60405180910390f35b3480156104fb57600080fd5b5061051660048036038101906105119190612aaa565b610f3c565b005b34801561052457600080fd5b5061053f600480360381019061053a9190612921565b610faa565b005b34801561054d57600080fd5b50610556611010565b604051610563919061299d565b60405180910390f35b34801561057857600080fd5b50610593600480360381019061058e9190612b98565b611016565b6040516105a1929190612c69565b60405180910390f35b3480156105b657600080fd5b506105bf611043565b005b3480156105cd57600080fd5b506105e860048036038101906105e39190612921565b6110cb565b6040516105f59190612652565b60405180910390f35b34801561060a57600080fd5b5061062560048036038101906106209190612921565b6110fe565b005b34801561063357600080fd5b5061063c61117d565b60405161064991906128da565b60405180910390f35b34801561065e57600080fd5b506106676111a1565b6040516106749190612583565b60405180910390f35b34801561068957600080fd5b506106a4600480360381019061069f919061294e565b6111ca565b6040516106b19190612652565b60405180910390f35b3480156106c657600080fd5b506106e160048036038101906106dc9190612c99565b611235565b005b3480156106ef57600080fd5b5061070a60048036038101906107059190612cec565b611363565b005b34801561071857600080fd5b506107216115dd565b60405161072e91906128da565b60405180910390f35b34801561074357600080fd5b5061074c6115e4565b604051610759919061299d565b60405180910390f35b34801561076e57600080fd5b5061078960048036038101906107849190612699565b6115ea565b6040516107969190612583565b60405180910390f35b3480156107ab57600080fd5b506107b4611629565b005b3480156107c257600080fd5b506107cb6116a7565b6040516107d8919061299d565b60405180910390f35b3480156107ed57600080fd5b506107f66116ad565b604051610803919061299d565b60405180910390f35b61082660048036038101906108219190612921565b6116b3565b604051610833919061299d565b60405180910390f35b34801561084857600080fd5b50610863600480360381019061085e9190612921565b61191f565b604051610870919061299d565b60405180910390f35b34801561088557600080fd5b5061088e611968565b60405161089b9190612583565b60405180910390f35b3480156108b057600080fd5b506108cb60048036038101906108c69190612d2c565b6119db565b005b3480156108d957600080fd5b506108e2611b0f565b6040516108ef91906128da565b60405180910390f35b34801561090457600080fd5b5061091f600480360381019061091a919061294e565b611b33565b005b34801561092d57600080fd5b50610936611b5c565b604051610943919061299d565b60405180910390f35b34801561095857600080fd5b50610961611b62565b60405161096e919061299d565b60405180910390f35b34801561098357600080fd5b5061099e60048036038101906109999190612d2c565b611b68565b6040516109ab91906128da565b60405180910390f35b3480156109c057600080fd5b506109c9611b9b565b6040516109d6919061299d565b60405180910390f35b3480156109eb57600080fd5b506109f4611ba1565b604051610a01919061299d565b60405180910390f35b348015610a1657600080fd5b50610a316004803603810190610a2c9190612921565b611bae565b005b348015610a3f57600080fd5b50610a5a6004803603810190610a559190612921565b611ca6565b604051610a679190612652565b60405180910390f35b348015610a7c57600080fd5b50610a85611cd9565b604051610a92919061299d565b60405180910390f35b60007f7965db0b000000000000000000000000000000000000000000000000000000007bffffffffffffffffffffffffffffffffffffffffffffffffffffffff1916827bffffffffffffffffffffffffffffffffffffffffffffffffffffffff19161480610b0e5750610b0d82611cdf565b5b9050919050565b600b805480610b2757610b26612d6c565b5b6001900381819060005260206000200160006101000a81549073ffffffffffffffffffffffffffffffffffffffff021916905590557fcc84aea3323be2f63b6aabd49c79a921d38ccf5ac86e3b92ac71938f7a56eae5604051610b8990612df8565b60405180910390a1565b6000600b8281548110610ba957610ba8612e18565b5b9060005260206000200160009054906101000a900473ffffffffffffffffffffffffffffffffffffffff169050919050565b6000600d60003373ffffffffffffffffffffffffffffffffffffffff1673ffffffffffffffffffffffffffffffffffffffff1681526020019081526020016000205414610c5d576040517f08c379a0000000000000000000000000000000000000000000000000000000008152600401610c5490612eb9565b60405180910390fd5b6001600854610c6c91906124ec565b6008819055506000610c7d33610faa565b82600f60003373ffffffffffffffffffffffffffffffffffffffff1673ffffffffffffffffffffffffffffffffffffffff1681526020019081526020016000208190555080600c60003373ffffffffffffffffffffffffffffffffffffffff1673ffffffffffffffffffffffffffffffffffffffff16815260200190815260200160002060006101000a81548160ff02191690836003811115610d2357610d226129b8565b5b0217905550600042905080600d60003373ffffffffffffffffffffffffffffffffffffffff1673ffffffffffffffffffffffffffffffffffffffff1681526020019081526020016000208190555080826003811115610d8557610d846129b8565b5b3373ffffffffffffffffffffffffffffffffffffffff167eca4f5b36f76a4228d4087cc6def18e35559ad4ff688228b10eac8719d4ccb48787604051610dcc929190612f1d565b60405180910390a450505050565b600060016000838152602001908152602001600020600101549050919050565b6000610e096000801b836111ca565b9050919050565b7fdf8b4c520ffe197c5343c6f5aec59570151ef9a492f2c624fd45ddde6135ec4281565b610e3d82610dda565b610e4e81610e49611d49565b611d51565b610e588383611dee565b505050565b610e65611d49565b73ffffffffffffffffffffffffffffffffffffffff168173ffffffffffffffffffffffffffffffffffffffff1614610ed2576040517f08c379a0000000000000000000000000000000000000000000000000000000008152600401610ec990612fbf565b60405180910390fd5b610edc8282611ece565b5050565b60045481565b6000600c60008373ffffffffffffffffffffffffffffffffffffffff1673ffffffffffffffffffffffffffffffffffffffff16815260200190815260200160002060009054906101000a900460ff169050919050565b60035460045442610f4d9190612fdf565b1015610f5857600080fd5b60004290506001600554610f6c91906124ec565b6005819055507f27b5030c821f67def7a41856122519006241350e393752bf1c305bbee0a8443960405160405180910390a180600481905550505050565b600b819080600181540180825580915050600190039060005260206000200160009091909190916101000a81548173ffffffffffffffffffffffffffffffffffffffff021916908373ffffffffffffffffffffffffffffffffffffffff16021790555050565b60055481565b6000606060025442101561102957600080fd5b6003546004544261103a9190612fdf565b10159150915091565b61104b611d49565b73ffffffffffffffffffffffffffffffffffffffff166110696111a1565b73ffffffffffffffffffffffffffffffffffffffff16146110bf576040517f08c379a00000000000000000000000000000000000000000000000000000000081526004016110b69061305f565b60405180910390fd5b6110c96000611fb0565b565b60006110f77f43023f179164d629e1d761fb32e2db4dbd5ce417a23159d7da9cc7b562689285836111ca565b9050919050565b611106611d49565b73ffffffffffffffffffffffffffffffffffffffff166111246111a1565b73ffffffffffffffffffffffffffffffffffffffff161461117a576040517f08c379a00000000000000000000000000000000000000000000000000000000081526004016111719061305f565b60405180910390fd5b50565b7f43023f179164d629e1d761fb32e2db4dbd5ce417a23159d7da9cc7b56268928581565b60008060009054906101000a900473ffffffffffffffffffffffffffffffffffffffff16905090565b60006001600084815260200190815260200160002060000160008373ffffffffffffffffffffffffffffffffffffffff1673ffffffffffffffffffffffffffffffffffffffff16815260200190815260200160002060009054906101000a900460ff16905092915050565b61123e33611ca6565b61127d576040517f08c379a0000000000000000000000000000000000000000000000000000000008152600401611274906130cb565b60405180910390fd5b60006112898484611b68565b90506000600e60008381526020019081526020016000205411156112e2576040517f08c379a00000000000000000000000000000000000000000000000000000000081526004016112d990613137565b60405180910390fd5b600042905080600e600084815260200190815260200160002081905550600160065461130e91906124ec565b60068190555061132085853386612074565b827f9b2bc1bf6068340d348c0d082cb97643aa5d83704e79076321472872e06c496286863360405161135493929190613157565b60405180910390a25050505050565b61136c33610dfa565b6113ab576040517f08c379a00000000000000000000000000000000000000000000000000000000081526004016113a2906131da565b60405180910390fd5b600060038111156113bf576113be6129b8565b5b600c60008473ffffffffffffffffffffffffffffffffffffffff1673ffffffffffffffffffffffffffffffffffffffff16815260200190815260200160002060009054906101000a900460ff16600381111561141e5761141d6129b8565b5b1461145e576040517f08c379a00000000000000000000000000000000000000000000000000000000081526004016114559061326c565b60405180910390fd5b600081118061146d5750600381105b6114ac576040517f08c379a00000000000000000000000000000000000000000000000000000000081526004016114a3906132d8565b60405180910390fd5b600060018214156114db577fa26228957b4ff1ee8d2f4555d58f130924b7939446a6af38afd42a510a51fbb490505b6002821415611508577f43023f179164d629e1d761fb32e2db4dbd5ce417a23159d7da9cc7b56268928590505b6115128184610e34565b6001600c60008573ffffffffffffffffffffffffffffffffffffffff1673ffffffffffffffffffffffffffffffffffffffff16815260200190815260200160002060006101000a81548160ff02191690836003811115611575576115746129b8565b5b021790555060004290508060016003811115611594576115936129b8565b5b8573ffffffffffffffffffffffffffffffffffffffff167f7e65d2815c31263f35f1fe1abe3457234c95a614c0233cf2ed5a70dcb6e83af360405160405180910390a450505050565b6000801b81565b600a5481565b600b81815481106115fa57600080fd5b906000526020600020016000915054906101000a900473ffffffffffffffffffffffffffffffffffffffff1681565b611631611d49565b73ffffffffffffffffffffffffffffffffffffffff1661164f6111a1565b73ffffffffffffffffffffffffffffffffffffffff16146116a5576040517f08c379a000000000000000000000000000000000000000000000000000000000815260040161169c9061305f565b60405180910390fd5b565b60095481565b60065481565b600080600d60008473ffffffffffffffffffffffffffffffffffffffff1673ffffffffffffffffffffffffffffffffffffffff1681526020019081526020016000205414611736576040517f08c379a000000000000000000000000000000000000000000000000000000000815260040161172d90613344565b60405180910390fd5b6001600a546117459190613364565b3414611786576040517f08c379a000000000000000000000000000000000000000000000000000000000815260040161177d90613430565b60405180910390fd5b346009600082825461179891906124ec565b925050819055506117dd6040518060400160405280601e81526020017f41646d696e206170706c69636174696f6e206665652072656365697665640000815250612116565b6117ea6000801b83610e34565b6001600c60008473ffffffffffffffffffffffffffffffffffffffff1673ffffffffffffffffffffffffffffffffffffffff16815260200190815260200160002060006101000a81548160ff0219169083600381111561184d5761184c6129b8565b5b0217905550600042905080600d60008573ffffffffffffffffffffffffffffffffffffffff1673ffffffffffffffffffffffffffffffffffffffff1681526020019081526020016000208190555080600160038111156118b0576118af6129b8565b5b8473ffffffffffffffffffffffffffffffffffffffff167f9309e0695b0e7b3572557f64aef511f2337f86203dda2dd880b8453d8818b2cd60405160405180910390a46119166040518060600160405280602481526020016138536024913984836121af565b80915050919050565b6000600f60008373ffffffffffffffffffffffffffffffffffffffff1673ffffffffffffffffffffffffffffffffffffffff168152602001908152602001600020549050919050565b600061197333610dfa565b6119b2576040517f08c379a00000000000000000000000000000000000000000000000000000000081526004016119a9906131da565b60405180910390fd5b60006119bc611ba1565b905060006119c982610b93565b90506119d3610b15565b809250505090565b6119e4336110cb565b611a23576040517f08c379a0000000000000000000000000000000000000000000000000000000008152600401611a1a9061349c565b60405180910390fd5b6000611a2f8383611b68565b90506000600e60008381526020019081526020016000205411611a87576040517f08c379a0000000000000000000000000000000000000000000000000000000008152600401611a7e9061352e565b60405180910390fd5b611ac56040518060400160405280601781526020017f7375627363726962656420746f2072656167656e744944000000000000000000815250612116565b81833373ffffffffffffffffffffffffffffffffffffffff167fce5cdbed66288747ca80d64fbf8ebe369edbe0a04856b0fedb7a2198f53ca08760405160405180910390a4505050565b7fa26228957b4ff1ee8d2f4555d58f130924b7939446a6af38afd42a510a51fbb481565b611b3c82610dda565b611b4d81611b48611d49565b611d51565b611b578383611ece565b505050565b60025481565b60075481565b60008282604051602001611b7d92919061354e565b60405160208183030381529060405280519060200120905092915050565b60085481565b6000600b80549050905090565b611bb6611d49565b73ffffffffffffffffffffffffffffffffffffffff16611bd46111a1565b73ffffffffffffffffffffffffffffffffffffffff1614611c2a576040517f08c379a0000000000000000000000000000000000000000000000000000000008152600401611c219061305f565b60405180910390fd5b600073ffffffffffffffffffffffffffffffffffffffff168173ffffffffffffffffffffffffffffffffffffffff161415611c9a576040517f08c379a0000000000000000000000000000000000000000000000000000000008152600401611c91906135e9565b60405180910390fd5b611ca381611fb0565b50565b6000611cd27fa26228957b4ff1ee8d2f4555d58f130924b7939446a6af38afd42a510a51fbb4836111ca565b9050919050565b60035481565b60007f01ffc9a7000000000000000000000000000000000000000000000000000000007bffffffffffffffffffffffffffffffffffffffffffffffffffffffff1916827bffffffffffffffffffffffffffffffffffffffffffffffffffffffff1916149050919050565b600033905090565b611d5b82826111ca565b611dea57611d808173ffffffffffffffffffffffffffffffffffffffff16601461224e565b611d8e8360001c602061224e565b604051602001611d9f9291906136dd565b6040516020818303038152906040526040517f08c379a0000000000000000000000000000000000000000000000000000000008152600401611de19190613717565b60405180910390fd5b5050565b611df882826111ca565b611eca57600180600084815260200190815260200160002060000160008373ffffffffffffffffffffffffffffffffffffffff1673ffffffffffffffffffffffffffffffffffffffff16815260200190815260200160002060006101000a81548160ff021916908315150217905550611e6f611d49565b73ffffffffffffffffffffffffffffffffffffffff168173ffffffffffffffffffffffffffffffffffffffff16837f2f8788117e7eff1d82e926ec794901d17c78024a50270940304540a733656f0d60405160405180910390a45b5050565b611ed882826111ca565b15611fac5760006001600084815260200190815260200160002060000160008373ffffffffffffffffffffffffffffffffffffffff1673ffffffffffffffffffffffffffffffffffffffff16815260200190815260200160002060006101000a81548160ff021916908315150217905550611f51611d49565b73ffffffffffffffffffffffffffffffffffffffff168173ffffffffffffffffffffffffffffffffffffffff16837ff6391f5c32d9c69d2a47ea670b442974b53935d1edc7fd64eb21e047a839171b60405160405180910390a45b5050565b60008060009054906101000a900473ffffffffffffffffffffffffffffffffffffffff169050816000806101000a81548173ffffffffffffffffffffffffffffffffffffffff021916908373ffffffffffffffffffffffffffffffffffffffff1602179055508173ffffffffffffffffffffffffffffffffffffffff168173ffffffffffffffffffffffffffffffffffffffff167f8be0079c531659141344cd1fd0a4f28419497f9722a3daafe3b4186f6b6457e060405160405180910390a35050565b6121108484848460405160240161208e9493929190613739565b6040516020818303038152906040527f610ba8c0000000000000000000000000000000000000000000000000000000007bffffffffffffffffffffffffffffffffffffffffffffffffffffffff19166020820180517bffffffffffffffffffffffffffffffffffffffffffffffffffffffff838183161783525050505061248a565b50505050565b6121ac8160405160240161212a9190613717565b6040516020818303038152906040527f41304fac000000000000000000000000000000000000000000000000000000007bffffffffffffffffffffffffffffffffffffffffffffffffffffffff19166020820180517bffffffffffffffffffffffffffffffffffffffffffffffffffffffff838183161783525050505061248a565b50565b6122498383836040516024016121c79392919061377e565b6040516020818303038152906040527f07c81217000000000000000000000000000000000000000000000000000000007bffffffffffffffffffffffffffffffffffffffffffffffffffffffff19166020820180517bffffffffffffffffffffffffffffffffffffffffffffffffffffffff838183161783525050505061248a565b505050565b6060600060028360026122619190613364565b61226b91906124ec565b67ffffffffffffffff811115612284576122836126e1565b5b6040519080825280601f01601f1916602001820160405280156122b65781602001600182028036833780820191505090505b5090507f3000000000000000000000000000000000000000000000000000000000000000816000815181106122ee576122ed612e18565b5b60200101907effffffffffffffffffffffffffffffffffffffffffffffffffffffffffffff1916908160001a9053507f78000000000000000000000000000000000000000000000000000000000000008160018151811061235257612351612e18565b5b60200101907effffffffffffffffffffffffffffffffffffffffffffffffffffffffffffff1916908160001a905350600060018460026123929190613364565b61239c91906124ec565b90505b600181111561243c577f3031323334353637383961626364656600000000000000000000000000000000600f8616601081106123de576123dd612e18565b5b1a60f81b8282815181106123f5576123f4612e18565b5b60200101907effffffffffffffffffffffffffffffffffffffffffffffffffffffffffffff1916908160001a905350600485901c945080612435906137bc565b905061239f565b5060008414612480576040517f08c379a000000000000000000000000000000000000000000000000000000000815260040161247790613832565b60405180910390fd5b8091505092915050565b60008151905060006a636f6e736f6c652e6c6f679050602083016000808483855afa5050505050565b6000819050919050565b7f4e487b7100000000000000000000000000000000000000000000000000000000600052601160045260246000fd5b60006124f7826124b3565b9150612502836124b3565b9250827fffffffffffffffffffffffffffffffffffffffffffffffffffffffffffffffff03821115612537576125366124bd565b5b828201905092915050565b600073ffffffffffffffffffffffffffffffffffffffff82169050919050565b600061256d82612542565b9050919050565b61257d81612562565b82525050565b60006020820190506125986000830184612574565b92915050565b6000604051905090565b600080fd5b600080fd5b60007fffffffff0000000000000000000000000000000000000000000000000000000082169050919050565b6125e7816125b2565b81146125f257600080fd5b50565b600081359050612604816125de565b92915050565b6000602082840312156126205761261f6125a8565b5b600061262e848285016125f5565b91505092915050565b60008115159050919050565b61264c81612637565b82525050565b60006020820190506126676000830184612643565b92915050565b612676816124b3565b811461268157600080fd5b50565b6000813590506126938161266d565b92915050565b6000602082840312156126af576126ae6125a8565b5b60006126bd84828501612684565b91505092915050565b600080fd5b600080fd5b6000601f19601f8301169050919050565b7f4e487b7100000000000000000000000000000000000000000000000000000000600052604160045260246000fd5b612719826126d0565b810181811067ffffffffffffffff82111715612738576127376126e1565b5b80604052505050565b600061274b61259e565b90506127578282612710565b919050565b600067ffffffffffffffff821115612777576127766126e1565b5b612780826126d0565b9050602081019050919050565b82818337600083830152505050565b60006127af6127aa8461275c565b612741565b9050828152602081018484840111156127cb576127ca6126cb565b5b6127d684828561278d565b509392505050565b600082601f8301126127f3576127f26126c6565b5b813561280384826020860161279c565b91505092915050565b60008060408385031215612823576128226125a8565b5b600061283185828601612684565b925050602083013567ffffffffffffffff811115612852576128516125ad565b5b61285e858286016127de565b9150509250929050565b6000819050919050565b61287b81612868565b811461288657600080fd5b50565b60008135905061289881612872565b92915050565b6000602082840312156128b4576128b36125a8565b5b60006128c284828501612889565b91505092915050565b6128d481612868565b82525050565b60006020820190506128ef60008301846128cb565b92915050565b6128fe81612562565b811461290957600080fd5b50565b60008135905061291b816128f5565b92915050565b600060208284031215612937576129366125a8565b5b60006129458482850161290c565b91505092915050565b60008060408385031215612965576129646125a8565b5b600061297385828601612889565b92505060206129848582860161290c565b9150509250929050565b612997816124b3565b82525050565b60006020820190506129b2600083018461298e565b92915050565b7f4e487b7100000000000000000000000000000000000000000000000000000000600052602160045260246000fd5b600481106129f8576129f76129b8565b5b50565b6000819050612a09826129e7565b919050565b6000612a19826129fb565b9050919050565b612a2981612a0e565b82525050565b6000602082019050612a446000830184612a20565b92915050565b600080fd5b600080fd5b60008083601f840112612a6a57612a696126c6565b5b8235905067ffffffffffffffff811115612a8757612a86612a4a565b5b602083019150836001820283011115612aa357612aa2612a4f565b5b9250929050565b60008060208385031215612ac157612ac06125a8565b5b600083013567ffffffffffffffff811115612adf57612ade6125ad565b5b612aeb85828601612a54565b92509250509250929050565b600067ffffffffffffffff821115612b1257612b116126e1565b5b612b1b826126d0565b9050602081019050919050565b6000612b3b612b3684612af7565b612741565b905082815260208101848484011115612b5757612b566126cb565b5b612b6284828561278d565b509392505050565b600082601f830112612b7f57612b7e6126c6565b5b8135612b8f848260208601612b28565b91505092915050565b600060208284031215612bae57612bad6125a8565b5b600082013567ffffffffffffffff811115612bcc57612bcb6125ad565b5b612bd884828501612b6a565b91505092915050565b600081519050919050565b600082825260208201905092915050565b60005b83811015612c1b578082015181840152602081019050612c00565b83811115612c2a576000848401525b50505050565b6000612c3b82612be1565b612c458185612bec565b9350612c55818560208601612bfd565b612c5e816126d0565b840191505092915050565b6000604082019050612c7e6000830185612643565b8181036020830152612c908184612c30565b90509392505050565b600080600060608486031215612cb257612cb16125a8565b5b6000612cc086828701612684565b9350506020612cd186828701612684565b9250506040612ce286828701612684565b9150509250925092565b60008060408385031215612d0357612d026125a8565b5b6000612d118582860161290c565b9250506020612d2285828601612684565b9150509250929050565b60008060408385031215612d4357612d426125a8565b5b6000612d5185828601612684565b9250506020612d6285828601612684565b9150509250929050565b7f4e487b7100000000000000000000000000000000000000000000000000000000600052603160045260246000fd5b600082825260208201905092915050565b7f4164647265737320706f70706564000000000000000000000000000000000000600082015250565b6000612de2600e83612d9b565b9150612ded82612dac565b602082019050919050565b60006020820190508181036000830152612e1181612dd5565b9050919050565b7f4e487b7100000000000000000000000000000000000000000000000000000000600052603260045260246000fd5b7f54686973207573657220697320616c726561647920726567697374657265642c60008201527f20636f6e746163742041646d696e000000000000000000000000000000000000602082015250565b6000612ea3602e83612d9b565b9150612eae82612e47565b604082019050919050565b60006020820190508181036000830152612ed281612e96565b9050919050565b600081519050919050565b6000612eef82612ed9565b612ef98185612d9b565b9350612f09818560208601612bfd565b612f12816126d0565b840191505092915050565b6000604082019050612f32600083018561298e565b8181036020830152612f448184612ee4565b90509392505050565b7f416363657373436f6e74726f6c3a2063616e206f6e6c792072656e6f756e636560008201527f20726f6c657320666f722073656c660000000000000000000000000000000000602082015250565b6000612fa9602f83612d9b565b9150612fb482612f4d565b604082019050919050565b60006020820190508181036000830152612fd881612f9c565b9050919050565b6000612fea826124b3565b9150612ff5836124b3565b925082821015613008576130076124bd565b5b828203905092915050565b7f4f776e61626c653a2063616c6c6572206973206e6f7420746865206f776e6572600082015250565b6000613049602083612d9b565b915061305482613013565b602082019050919050565b600060208201905081810360008301526130788161303c565b9050919050565b7f5265737472696374656420746f2050726f647563657273000000000000000000600082015250565b60006130b5601783612d9b565b91506130c08261307f565b602082019050919050565b600060208201905081810360008301526130e4816130a8565b9050919050565b7f52656167656e7420616c7265616479206578697374696e672100000000000000600082015250565b6000613121601983612d9b565b915061312c826130eb565b602082019050919050565b6000602082019050818103600083015261315081613114565b9050919050565b600060608201905061316c600083018661298e565b613179602083018561298e565b6131866040830184612574565b949350505050565b7f5265737472696374656420746f2061646d696e00000000000000000000000000600082015250565b60006131c4601383612d9b565b91506131cf8261318e565b602082019050919050565b600060208201905081810360008301526131f3816131b7565b9050919050565b7f55736572206973206e6f7420696e2070656e64696e67207374617465206f722060008201527f77726f6e67206164647265737300000000000000000000000000000000000000602082015250565b6000613256602d83612d9b565b9150613261826131fa565b604082019050919050565b6000602082019050818103600083015261328581613249565b9050919050565b7f496e76616c696420726f6c65206e756d62657221000000000000000000000000600082015250565b60006132c2601483612d9b565b91506132cd8261328c565b602082019050919050565b600060208201905081810360008301526132f1816132b5565b9050919050565b7f546869732041646d696e20697320616c72656164792072656769737465726564600082015250565b600061332e602083612d9b565b9150613339826132f8565b602082019050919050565b6000602082019050818103600083015261335d81613321565b9050919050565b600061336f826124b3565b915061337a836124b3565b9250817fffffffffffffffffffffffffffffffffffffffffffffffffffffffffffffffff04831182151516156133b3576133b26124bd565b5b828202905092915050565b7f56616c7565207472616e736665726564206973206e6f7420656e6f756768207460008201527f6f20636f7665722041646d696e206170706c69636174696f6e00000000000000602082015250565b600061341a603983612d9b565b9150613425826133be565b604082019050919050565b600060208201905081810360008301526134498161340d565b9050919050565b7f5265737472696374656420746f20636c69656e74730000000000000000000000600082015250565b6000613486601583612d9b565b915061349182613450565b602082019050919050565b600060208201905081810360008301526134b581613479565b9050919050565b7f536f6c6963697465642052656167656e7420646f65736e27742065786973742c60008201527f20636f6e746163742041646d696e000000000000000000000000000000000000602082015250565b6000613518602e83612d9b565b9150613523826134bc565b604082019050919050565b600060208201905081810360008301526135478161350b565b9050919050565b6000604082019050613563600083018561298e565b613570602083018461298e565b9392505050565b7f4f776e61626c653a206e6577206f776e657220697320746865207a65726f206160008201527f6464726573730000000000000000000000000000000000000000000000000000602082015250565b60006135d3602683612d9b565b91506135de82613577565b604082019050919050565b60006020820190508181036000830152613602816135c6565b9050919050565b600081905092915050565b7f416363657373436f6e74726f6c3a206163636f756e7420000000000000000000600082015250565b600061364a601783613609565b915061365582613614565b601782019050919050565b600061366b82612ed9565b6136758185613609565b9350613685818560208601612bfd565b80840191505092915050565b7f206973206d697373696e6720726f6c6520000000000000000000000000000000600082015250565b60006136c7601183613609565b91506136d282613691565b601182019050919050565b60006136e88261363d565b91506136f48285613660565b91506136ff826136ba565b915061370b8284613660565b91508190509392505050565b600060208201905081810360008301526137318184612ee4565b905092915050565b600060808201905061374e600083018761298e565b61375b602083018661298e565b6137686040830185612574565b613775606083018461298e565b95945050505050565b600060608201905081810360008301526137988186612ee4565b90506137a76020830185612574565b6137b4604083018461298e565b949350505050565b60006137c7826124b3565b915060008214156137db576137da6124bd565b5b600182039050919050565b7f537472696e67733a20686578206c656e67746820696e73756666696369656e74600082015250565b600061381c602083612d9b565b9150613827826137e6565b602082019050919050565b6000602082019050818103600083015261384b8161380f565b905091905056fe616464726573733a202573206772616e7465642061646d696e20726f6c65206f6e202573a2646970667358221220d46125f17bf58b76feca8f234c150d743a079bf0ddeb8cb10c06e2733702509b64736f6c634300080a0033",
  "devdoc": {
    "events": {
      "ReagentCreation(uint256,uint256,address,uint256)": {
        "details": "EVENTS:"
      }
    },
    "kind": "dev",
    "methods": {
      "checkUpkeep(bytes)": {
        "details": "Oracle functions:      Oracle used: Chainlink's keeper      the keeper uses checkUpkeep and performUpkee functions.      Off-chain a keeper node runs a simulation of the checkUpkeep function.      when a condition is met, the keeper broadcasts      a transaction to the blockchain executing the       performUpkeep function. When the performUpkeep function is executed      an email is sent to all the Clients whose reagent has expired.      When the current date corresponds to the first day of the month, the       condition is met. However, for testing purposes, when the condition will       be met every hour.  ",
        "params": {
          "": "/*checkData*/ (not used in this case)"
        },
        "returns": {
          "upkeepNeeded": "(if true the keeper executes the performUpkeep function)         /*performData*/ not used  "
        }
      },
      "constructor": {
        "details": "CONSTRUCTOR:"
      },
      "createReagent(uint256,uint256,uint256)": {
        "details": "PRODUCER FUNCTIONS:"
      },
      "getRoleAdmin(bytes32)": {
        "details": "Returns the admin role that controls `role`. See {grantRole} and {revokeRole}. To change a role's admin, use {_setRoleAdmin}."
      },
      "grantRole(bytes32,address)": {
        "details": "Grants `role` to `account`. If `account` had not been already granted `role`, emits a {RoleGranted} event. Requirements: - the caller must have ``role``'s admin role."
      },
      "hasRole(bytes32,address)": {
        "details": "Returns `true` if `account` has been granted `role`."
      },
      "isAdmin(address)": {
        "details": "checks if the message sender is the admin   ",
        "params": {
          "userAddress": "corresponds to the address of the user invoking the function"
        },
        "returns": {
          "_0": "bool, true if the user address belongs to the admin role"
        }
      },
      "isClient(address)": {
        "details": "Returns true if the userAddress belongs to a client"
      },
      "isProducer(address)": {
        "details": "Returns true if the userAddress belongs to a producer"
      },
      "owner()": {
        "details": "Returns the address of the current owner."
      },
      "performUpkeep(bytes)": {
        "params": {
          "": "/*performData*/ (not used in this case)"
        }
      },
      "registerAdmin(address)": {
        "details": "ADMIN REGISTRATION FUNCTIONS:        "
      },
      "registerUser(uint256,string)": {
        "details": "USER REGISTRATION FUNCTIONS:    "
      },
      "renounceOwnership()": {
        "details": "Leaves the contract without owner. It will not be possible to call `onlyOwner` functions anymore. Can only be called by the current owner. NOTE: Renouncing ownership will leave the contract without an owner, thereby removing any functionality that is only available to the owner."
      },
      "renounceRole(bytes32,address)": {
        "details": "Revokes `role` from the calling account. Roles are often managed via {grantRole} and {revokeRole}: this function's purpose is to provide a mechanism for accounts to lose their privileges if they are compromised (such as when a trusted device is misplaced). If the calling account had been granted `role`, emits a {RoleRevoked} event. Requirements: - the caller must be `account`."
      },
      "revokeRole(bytes32,address)": {
        "details": "Revokes `role` from `account`. If `account` had been granted `role`, emits a {RoleRevoked} event. Requirements: - the caller must have ``role``'s admin role."
      },
      "subscribeToAReagent(uint256,uint256)": {
        "details": "CLIENT FUNCTIONS:"
      },
      "supportsInterface(bytes4)": {
        "details": "See {IERC165-supportsInterface}."
      },
      "transferOwnership(address)": {
        "details": "Transfers ownership of the contract to a new account (`newOwner`). Can only be called by the current owner."
      }
    },
    "stateVariables": {
      "PRODUCER": {
        "details": "CONSTANTS:"
      },
      "addressesInPendingState": {
        "details": "ARRAYS:"
      },
      "initialTimestamp": {
        "details": "VARIABLES:"
      },
      "intervalTime": {
        "details": "to ease the process of testing, set this variable to 5 minutes(300 seconds);"
      },
      "userAddressToStateOfUser": {
        "details": "MAPPINGS:"
      }
    },
    "version": 1
  },
  "userdoc": {
    "events": {
      "ReagentCreation(uint256,uint256,address,uint256)": {
        "notice": "***********************************************************************"
      }
    },
    "kind": "user",
    "methods": {
      "PRODUCER()": {
        "notice": "***********************************************************************"
      },
      "addressesInPendingState(uint256)": {
        "notice": "***********************************************************************"
      },
      "constructor": {
        "notice": "***********************************************************************"
      },
      "initialTimestamp()": {
        "notice": "***********************************************************************"
      }
    },
    "version": 1
  },
  "storageLayout": {
    "storage": [
      {
        "astId": 406,
        "contract": "contracts/Charlize.sol:Charlize",
        "label": "_owner",
        "offset": 0,
        "slot": "0",
        "type": "t_address"
      },
      {
        "astId": 43,
        "contract": "contracts/Charlize.sol:Charlize",
        "label": "_roles",
        "offset": 0,
        "slot": "1",
        "type": "t_mapping(t_bytes32,t_struct(RoleData)38_storage)"
      },
      {
        "astId": 778,
        "contract": "contracts/Charlize.sol:Charlize",
        "label": "initialTimestamp",
        "offset": 0,
        "slot": "2",
        "type": "t_uint256"
      },
      {
        "astId": 781,
        "contract": "contracts/Charlize.sol:Charlize",
        "label": "intervalTime",
        "offset": 0,
        "slot": "3",
        "type": "t_uint256"
      },
      {
        "astId": 783,
        "contract": "contracts/Charlize.sol:Charlize",
        "label": "lastUpkeep",
        "offset": 0,
        "slot": "4",
        "type": "t_uint256"
      },
      {
        "astId": 785,
        "contract": "contracts/Charlize.sol:Charlize",
        "label": "counter",
        "offset": 0,
        "slot": "5",
        "type": "t_uint256"
      },
      {
        "astId": 787,
        "contract": "contracts/Charlize.sol:Charlize",
        "label": "reagentCount",
        "offset": 0,
        "slot": "6",
        "type": "t_uint256"
      },
      {
        "astId": 789,
        "contract": "contracts/Charlize.sol:Charlize",
        "label": "producerCount",
        "offset": 0,
        "slot": "7",
        "type": "t_uint256"
      },
      {
        "astId": 791,
        "contract": "contracts/Charlize.sol:Charlize",
        "label": "userApplicationCount",
        "offset": 0,
        "slot": "8",
        "type": "t_uint256"
      },
      {
        "astId": 793,
        "contract": "contracts/Charlize.sol:Charlize",
        "label": "balance",
        "offset": 0,
        "slot": "9",
        "type": "t_uint256"
      },
      {
        "astId": 795,
        "contract": "contracts/Charlize.sol:Charlize",
        "label": "adminApplicationFee",
        "offset": 0,
        "slot": "10",
        "type": "t_uint256"
      },
      {
        "astId": 815,
        "contract": "contracts/Charlize.sol:Charlize",
        "label": "addressesInPendingState",
        "offset": 0,
        "slot": "11",
        "type": "t_array(t_address)dyn_storage"
      },
      {
        "astId": 821,
        "contract": "contracts/Charlize.sol:Charlize",
        "label": "userAddressToStateOfUser",
        "offset": 0,
        "slot": "12",
        "type": "t_mapping(t_address,t_enum(UserState)898)"
      },
      {
        "astId": 825,
        "contract": "contracts/Charlize.sol:Charlize",
        "label": "userAddressToRegistrationDate",
        "offset": 0,
        "slot": "13",
        "type": "t_mapping(t_address,t_uint256)"
      },
      {
        "astId": 829,
        "contract": "contracts/Charlize.sol:Charlize",
        "label": "reagentIDToReagentCreationDate",
        "offset": 0,
        "slot": "14",
        "type": "t_mapping(t_bytes32,t_uint256)"
      },
      {
        "astId": 833,
        "contract": "contracts/Charlize.sol:Charlize",
        "label": "userAddressToRoleNumber",
        "offset": 0,
        "slot": "15",
        "type": "t_mapping(t_address,t_uint256)"
      }
    ],
    "types": {
      "t_address": {
        "encoding": "inplace",
        "label": "address",
        "numberOfBytes": "20"
      },
      "t_array(t_address)dyn_storage": {
        "base": "t_address",
        "encoding": "dynamic_array",
        "label": "address[]",
        "numberOfBytes": "32"
      },
      "t_bool": {
        "encoding": "inplace",
        "label": "bool",
        "numberOfBytes": "1"
      },
      "t_bytes32": {
        "encoding": "inplace",
        "label": "bytes32",
        "numberOfBytes": "32"
      },
      "t_enum(UserState)898": {
        "encoding": "inplace",
        "label": "enum Charlize.UserState",
        "numberOfBytes": "1"
      },
      "t_mapping(t_address,t_bool)": {
        "encoding": "mapping",
        "key": "t_address",
        "label": "mapping(address => bool)",
        "numberOfBytes": "32",
        "value": "t_bool"
      },
      "t_mapping(t_address,t_enum(UserState)898)": {
        "encoding": "mapping",
        "key": "t_address",
        "label": "mapping(address => enum Charlize.UserState)",
        "numberOfBytes": "32",
        "value": "t_enum(UserState)898"
      },
      "t_mapping(t_address,t_uint256)": {
        "encoding": "mapping",
        "key": "t_address",
        "label": "mapping(address => uint256)",
        "numberOfBytes": "32",
        "value": "t_uint256"
      },
      "t_mapping(t_bytes32,t_struct(RoleData)38_storage)": {
        "encoding": "mapping",
        "key": "t_bytes32",
        "label": "mapping(bytes32 => struct AccessControl.RoleData)",
        "numberOfBytes": "32",
        "value": "t_struct(RoleData)38_storage"
      },
      "t_mapping(t_bytes32,t_uint256)": {
        "encoding": "mapping",
        "key": "t_bytes32",
        "label": "mapping(bytes32 => uint256)",
        "numberOfBytes": "32",
        "value": "t_uint256"
      },
      "t_struct(RoleData)38_storage": {
        "encoding": "inplace",
        "label": "struct AccessControl.RoleData",
        "members": [
          {
            "astId": 35,
            "contract": "contracts/Charlize.sol:Charlize",
            "label": "members",
            "offset": 0,
            "slot": "0",
            "type": "t_mapping(t_address,t_bool)"
          },
          {
            "astId": 37,
            "contract": "contracts/Charlize.sol:Charlize",
            "label": "adminRole",
            "offset": 0,
            "slot": "1",
            "type": "t_bytes32"
          }
        ],
        "numberOfBytes": "64"
      },
      "t_uint256": {
        "encoding": "inplace",
        "label": "uint256",
        "numberOfBytes": "32"
      }
    }
  }
}