{
  "address": "0x09f2E8bB17f70d0D5CC2340421811b3b946740Ad",
  "abi": [
    {
      "inputs": [
        {
          "internalType": "uint256",
          "name": "_initialTimestamp",
          "type": "uint256"
        },
        {
          "internalType": "uint256",
          "name": "_intervalTime",
          "type": "uint256"
        },
        {
          "internalType": "address",
          "name": "_admin",
          "type": "address"
        },
        {
          "internalType": "uint256",
          "name": "_adminApplicationFee",
          "type": "uint256"
        }
      ],
      "stateMutability": "nonpayable",
      "type": "constructor"
    },
    {
      "anonymous": false,
      "inputs": [
        {
          "indexed": true,
          "internalType": "address",
          "name": "userAddress",
          "type": "address"
        },
        {
          "indexed": true,
          "internalType": "enum Charlize.UserState",
          "name": "stateOfUser",
          "type": "uint8"
        },
        {
          "indexed": true,
          "internalType": "uint256",
          "name": "registrationDate",
          "type": "uint256"
        }
      ],
      "name": "AccessGranted",
      "type": "event"
    },
    {
      "anonymous": false,
      "inputs": [
        {
          "indexed": false,
          "internalType": "uint256",
          "name": "expirationCheck",
          "type": "uint256"
        }
      ],
      "name": "CheckExpirationDate",
      "type": "event"
    },
    {
      "anonymous": false,
      "inputs": [
        {
          "indexed": false,
          "internalType": "address",
          "name": "adminApplicantAddress",
          "type": "address"
        }
      ],
      "name": "LogDeposit",
      "type": "event"
    },
    {
      "anonymous": false,
      "inputs": [
        {
          "indexed": true,
          "internalType": "address",
          "name": "previousOwner",
          "type": "address"
        },
        {
          "indexed": true,
          "internalType": "address",
          "name": "newOwner",
          "type": "address"
        }
      ],
      "name": "OwnershipTransferred",
      "type": "event"
    },
    {
      "anonymous": false,
      "inputs": [
        {
          "indexed": true,
          "internalType": "bytes32",
          "name": "reagentID",
          "type": "bytes32"
        },
        {
          "indexed": false,
          "internalType": "uint256",
          "name": "reagentNDC",
          "type": "uint256"
        },
        {
          "indexed": false,
          "internalType": "uint256",
          "name": "reagentLotNumber",
          "type": "uint256"
        },
        {
          "indexed": false,
          "internalType": "address",
          "name": "producerAddress",
          "type": "address"
        },
        {
          "indexed": true,
          "internalType": "uint256",
          "name": "expirationDate",
          "type": "uint256"
        },
        {
          "indexed": false,
          "internalType": "uint256",
          "name": "CreationDate",
          "type": "uint256"
        }
      ],
      "name": "ReagentCreation",
      "type": "event"
    },
    {
      "anonymous": false,
      "inputs": [
        {
          "indexed": true,
          "internalType": "bytes32",
          "name": "role",
          "type": "bytes32"
        },
        {
          "indexed": true,
          "internalType": "bytes32",
          "name": "previousAdminRole",
          "type": "bytes32"
        },
        {
          "indexed": true,
          "internalType": "bytes32",
          "name": "newAdminRole",
          "type": "bytes32"
        }
      ],
      "name": "RoleAdminChanged",
      "type": "event"
    },
    {
      "anonymous": false,
      "inputs": [
        {
          "indexed": true,
          "internalType": "bytes32",
          "name": "role",
          "type": "bytes32"
        },
        {
          "indexed": true,
          "internalType": "address",
          "name": "account",
          "type": "address"
        },
        {
          "indexed": true,
          "internalType": "address",
          "name": "sender",
          "type": "address"
        }
      ],
      "name": "RoleGranted",
      "type": "event"
    },
    {
      "anonymous": false,
      "inputs": [
        {
          "indexed": true,
          "internalType": "bytes32",
          "name": "role",
          "type": "bytes32"
        },
        {
          "indexed": true,
          "internalType": "address",
          "name": "account",
          "type": "address"
        },
        {
          "indexed": true,
          "internalType": "address",
          "name": "sender",
          "type": "address"
        }
      ],
      "name": "RoleRevoked",
      "type": "event"
    },
    {
      "anonymous": false,
      "inputs": [
        {
          "indexed": true,
          "internalType": "bytes32",
          "name": "reagentID",
          "type": "bytes32"
        },
        {
          "indexed": true,
          "internalType": "address",
          "name": "clientAddress",
          "type": "address"
        },
        {
          "indexed": true,
          "internalType": "uint256",
          "name": "reagentCreationDate",
          "type": "uint256"
        }
      ],
      "name": "SubscribedToReagent",
      "type": "event"
    },
    {
      "anonymous": false,
      "inputs": [
        {
          "indexed": true,
          "internalType": "address",
          "name": "userAddress",
          "type": "address"
        },
        {
          "indexed": false,
          "internalType": "uint256",
          "name": "roleNumber",
          "type": "uint256"
        },
        {
          "indexed": false,
          "internalType": "string",
          "name": "email",
          "type": "string"
        },
        {
          "indexed": true,
          "internalType": "enum Charlize.UserState",
          "name": "stateOfUser",
          "type": "uint8"
        },
        {
          "indexed": true,
          "internalType": "uint256",
          "name": "registrationDate",
          "type": "uint256"
        }
      ],
      "name": "UserRegistered",
      "type": "event"
    },
    {
      "stateMutability": "nonpayable",
      "type": "fallback"
    },
    {
      "inputs": [],
      "name": "ADMIN",
      "outputs": [
        {
          "internalType": "bytes32",
          "name": "",
          "type": "bytes32"
        }
      ],
      "stateMutability": "view",
      "type": "function"
    },
    {
      "inputs": [],
      "name": "CLIENT",
      "outputs": [
        {
          "internalType": "bytes32",
          "name": "",
          "type": "bytes32"
        }
      ],
      "stateMutability": "view",
      "type": "function"
    },
    {
      "inputs": [],
      "name": "DEFAULT_ADMIN_ROLE",
      "outputs": [
        {
          "internalType": "bytes32",
          "name": "",
          "type": "bytes32"
        }
      ],
      "stateMutability": "view",
      "type": "function"
    },
    {
      "inputs": [],
      "name": "PRODUCER",
      "outputs": [
        {
          "internalType": "bytes32",
          "name": "",
          "type": "bytes32"
        }
      ],
      "stateMutability": "view",
      "type": "function"
    },
    {
      "inputs": [],
      "name": "adminApplicationFee",
      "outputs": [
        {
          "internalType": "uint256",
          "name": "",
          "type": "uint256"
        }
      ],
      "stateMutability": "view",
      "type": "function"
    },
    {
      "inputs": [],
      "name": "balance",
      "outputs": [
        {
          "internalType": "uint256",
          "name": "",
          "type": "uint256"
        }
      ],
      "stateMutability": "view",
      "type": "function"
    },
    {
      "inputs": [],
      "name": "changeUserFromRetiredOrRejectedToPending",
      "outputs": [],
      "stateMutability": "nonpayable",
      "type": "function"
    },
    {
      "inputs": [
        {
          "internalType": "bytes",
          "name": "",
          "type": "bytes"
        }
      ],
      "name": "checkUpkeep",
      "outputs": [
        {
          "internalType": "bool",
          "name": "upkeepNeeded",
          "type": "bool"
        },
        {
          "internalType": "bytes",
          "name": "",
          "type": "bytes"
        }
      ],
      "stateMutability": "view",
      "type": "function"
    },
    {
      "inputs": [],
      "name": "counter",
      "outputs": [
        {
          "internalType": "uint256",
          "name": "",
          "type": "uint256"
        }
      ],
      "stateMutability": "view",
      "type": "function"
    },
    {
      "inputs": [
        {
          "internalType": "uint256",
          "name": "reagentNDC",
          "type": "uint256"
        },
        {
          "internalType": "uint256",
          "name": "reagentLotNumber",
          "type": "uint256"
        },
        {
          "internalType": "uint256",
          "name": "expirationDate",
          "type": "uint256"
        }
      ],
      "name": "createReagent",
      "outputs": [],
      "stateMutability": "nonpayable",
      "type": "function"
    },
    {
      "inputs": [
        {
          "internalType": "bytes32",
          "name": "role",
          "type": "bytes32"
        }
      ],
      "name": "getRoleAdmin",
      "outputs": [
        {
          "internalType": "bytes32",
          "name": "",
          "type": "bytes32"
        }
      ],
      "stateMutability": "view",
      "type": "function"
    },
    {
      "inputs": [
        {
          "internalType": "address",
          "name": "userAddress",
          "type": "address"
        },
        {
          "internalType": "uint256",
          "name": "roleNumber",
          "type": "uint256"
        }
      ],
      "name": "grantAccess",
      "outputs": [],
      "stateMutability": "nonpayable",
      "type": "function"
    },
    {
      "inputs": [
        {
          "internalType": "bytes32",
          "name": "role",
          "type": "bytes32"
        },
        {
          "internalType": "address",
          "name": "account",
          "type": "address"
        }
      ],
      "name": "grantRole",
      "outputs": [],
      "stateMutability": "nonpayable",
      "type": "function"
    },
    {
      "inputs": [
        {
          "internalType": "bytes32",
          "name": "role",
          "type": "bytes32"
        },
        {
          "internalType": "address",
          "name": "account",
          "type": "address"
        }
      ],
      "name": "hasRole",
      "outputs": [
        {
          "internalType": "bool",
          "name": "",
          "type": "bool"
        }
      ],
      "stateMutability": "view",
      "type": "function"
    },
    {
      "inputs": [],
      "name": "initialTimestamp",
      "outputs": [
        {
          "internalType": "uint256",
          "name": "",
          "type": "uint256"
        }
      ],
      "stateMutability": "view",
      "type": "function"
    },
    {
      "inputs": [],
      "name": "intervalTime",
      "outputs": [
        {
          "internalType": "uint256",
          "name": "",
          "type": "uint256"
        }
      ],
      "stateMutability": "view",
      "type": "function"
    },
    {
      "inputs": [
        {
          "internalType": "address",
          "name": "userAddress",
          "type": "address"
        }
      ],
      "name": "isAdmin",
      "outputs": [
        {
          "internalType": "bool",
          "name": "",
          "type": "bool"
        }
      ],
      "stateMutability": "view",
      "type": "function"
    },
    {
      "inputs": [
        {
          "internalType": "address",
          "name": "userAddress",
          "type": "address"
        }
      ],
      "name": "isClient",
      "outputs": [
        {
          "internalType": "bool",
          "name": "",
          "type": "bool"
        }
      ],
      "stateMutability": "view",
      "type": "function"
    },
    {
      "inputs": [
        {
          "internalType": "address",
          "name": "userAddress",
          "type": "address"
        }
      ],
      "name": "isProducer",
      "outputs": [
        {
          "internalType": "bool",
          "name": "",
          "type": "bool"
        }
      ],
      "stateMutability": "view",
      "type": "function"
    },
    {
      "inputs": [],
      "name": "lastUpkeep",
      "outputs": [
        {
          "internalType": "uint256",
          "name": "",
          "type": "uint256"
        }
      ],
      "stateMutability": "view",
      "type": "function"
    },
    {
      "inputs": [],
      "name": "owner",
      "outputs": [
        {
          "internalType": "address",
          "name": "",
          "type": "address"
        }
      ],
      "stateMutability": "view",
      "type": "function"
    },
    {
      "inputs": [
        {
          "internalType": "bytes",
          "name": "",
          "type": "bytes"
        }
      ],
      "name": "performUpkeep",
      "outputs": [],
      "stateMutability": "nonpayable",
      "type": "function"
    },
    {
      "inputs": [],
      "name": "producerCount",
      "outputs": [
        {
          "internalType": "uint256",
          "name": "",
          "type": "uint256"
        }
      ],
      "stateMutability": "view",
      "type": "function"
    },
    {
      "inputs": [],
      "name": "reagentCount",
      "outputs": [
        {
          "internalType": "uint256",
          "name": "",
          "type": "uint256"
        }
      ],
      "stateMutability": "view",
      "type": "function"
    },
    {
      "inputs": [
        {
          "internalType": "uint256",
          "name": "reagentNDC",
          "type": "uint256"
        },
        {
          "internalType": "uint256",
          "name": "reagentLotNumber",
          "type": "uint256"
        }
      ],
      "name": "reagentId",
      "outputs": [
        {
          "internalType": "bytes32",
          "name": "",
          "type": "bytes32"
        }
      ],
      "stateMutability": "pure",
      "type": "function"
    },
    {
      "inputs": [
        {
          "internalType": "address",
          "name": "adminApplicant",
          "type": "address"
        }
      ],
      "name": "registerAdmin",
      "outputs": [
        {
          "internalType": "uint256",
          "name": "",
          "type": "uint256"
        }
      ],
      "stateMutability": "payable",
      "type": "function"
    },
    {
      "inputs": [
        {
          "internalType": "uint256",
          "name": "roleNumber",
          "type": "uint256"
        },
        {
          "internalType": "string",
          "name": "email",
          "type": "string"
        }
      ],
      "name": "registerUser",
      "outputs": [],
      "stateMutability": "nonpayable",
      "type": "function"
    },
    {
      "inputs": [],
      "name": "renounceOwnership",
      "outputs": [],
      "stateMutability": "nonpayable",
      "type": "function"
    },
    {
      "inputs": [
        {
          "internalType": "bytes32",
          "name": "role",
          "type": "bytes32"
        },
        {
          "internalType": "address",
          "name": "account",
          "type": "address"
        }
      ],
      "name": "renounceRole",
      "outputs": [],
      "stateMutability": "nonpayable",
      "type": "function"
    },
    {
      "inputs": [
        {
          "internalType": "address",
          "name": "userAddress",
          "type": "address"
        }
      ],
      "name": "revokeAccess",
      "outputs": [],
      "stateMutability": "nonpayable",
      "type": "function"
    },
    {
      "inputs": [
        {
          "internalType": "bytes32",
          "name": "role",
          "type": "bytes32"
        },
        {
          "internalType": "address",
          "name": "account",
          "type": "address"
        }
      ],
      "name": "revokeRole",
      "outputs": [],
      "stateMutability": "nonpayable",
      "type": "function"
    },
    {
      "inputs": [
        {
          "internalType": "uint256",
          "name": "reagentNDC",
          "type": "uint256"
        },
        {
          "internalType": "uint256",
          "name": "reagentLotNumber",
          "type": "uint256"
        }
      ],
      "name": "subscribeToAReagent",
      "outputs": [],
      "stateMutability": "nonpayable",
      "type": "function"
    },
    {
      "inputs": [
        {
          "internalType": "bytes4",
          "name": "interfaceId",
          "type": "bytes4"
        }
      ],
      "name": "supportsInterface",
      "outputs": [
        {
          "internalType": "bool",
          "name": "",
          "type": "bool"
        }
      ],
      "stateMutability": "view",
      "type": "function"
    },
    {
      "inputs": [
        {
          "internalType": "address",
          "name": "newOwner",
          "type": "address"
        }
      ],
      "name": "transferOwnership",
      "outputs": [],
      "stateMutability": "nonpayable",
      "type": "function"
    },
    {
      "inputs": [],
      "name": "userApplicationCount",
      "outputs": [
        {
          "internalType": "uint256",
          "name": "",
          "type": "uint256"
        }
      ],
      "stateMutability": "view",
      "type": "function"
    },
    {
      "stateMutability": "payable",
      "type": "receive"
    }
  ],
  "transactionHash": "0xa2d770c505ed0497980dfd678aa7dc8ce969ae2d9c0920bde849f4483ef1cdb9",
  "args": [
    1638324714,
    300,
    "0x96C2E7Fcb2fFE9a00dD9349fB3Fdc12c0eEcBD21",
    1
  ],
  "solcInputHash": "33682ac0a3e55e6c1d3ece9da7413395",
  "bytecode": "0x60806040523480156200001157600080fd5b50604051620033ef380380620033ef833981810160405281019062000037919062000443565b620000576200004b620000dc60201b60201c565b620000e460201b60201c565b83600281905550826003819055508360048190555080600a81905550620000886000801b33620001a860201b60201c565b620000bd7fdf8b4c520ffe197c5343c6f5aec59570151ef9a492f2c624fd45ddde6135ec426000801b620001be60201b60201c565b620000d26000801b83620001a860201b60201c565b50505050620004b5565b600033905090565b60008060009054906101000a900473ffffffffffffffffffffffffffffffffffffffff169050816000806101000a81548173ffffffffffffffffffffffffffffffffffffffff021916908373ffffffffffffffffffffffffffffffffffffffff1602179055508173ffffffffffffffffffffffffffffffffffffffff168173ffffffffffffffffffffffffffffffffffffffff167f8be0079c531659141344cd1fd0a4f28419497f9722a3daafe3b4186f6b6457e060405160405180910390a35050565b620001ba82826200022260201b60201c565b5050565b6000620001d1836200031360201b60201c565b90508160016000858152602001908152602001600020600101819055508181847fbd79b86ffe0ab8e8776151514217cd7cacd52c909f66475c3af44e129f0b00ff60405160405180910390a4505050565b6200023482826200033360201b60201c565b6200030f57600180600084815260200190815260200160002060000160008373ffffffffffffffffffffffffffffffffffffffff1673ffffffffffffffffffffffffffffffffffffffff16815260200190815260200160002060006101000a81548160ff021916908315150217905550620002b4620000dc60201b60201c565b73ffffffffffffffffffffffffffffffffffffffff168173ffffffffffffffffffffffffffffffffffffffff16837f2f8788117e7eff1d82e926ec794901d17c78024a50270940304540a733656f0d60405160405180910390a45b5050565b600060016000838152602001908152602001600020600101549050919050565b60006001600084815260200190815260200160002060000160008373ffffffffffffffffffffffffffffffffffffffff1673ffffffffffffffffffffffffffffffffffffffff16815260200190815260200160002060009054906101000a900460ff16905092915050565b600080fd5b6000819050919050565b620003b881620003a3565b8114620003c457600080fd5b50565b600081519050620003d881620003ad565b92915050565b600073ffffffffffffffffffffffffffffffffffffffff82169050919050565b60006200040b82620003de565b9050919050565b6200041d81620003fe565b81146200042957600080fd5b50565b6000815190506200043d8162000412565b92915050565b6000806000806080858703121562000460576200045f6200039e565b5b60006200047087828801620003c7565b94505060206200048387828801620003c7565b935050604062000496878288016200042c565b9250506060620004a987828801620003c7565b91505092959194509250565b612f2a80620004c56000396000f3fe6080604052600436106102085760003560e01c8063939b409f11610118578063d2e1da1e116100a0578063da093fc01161006f578063da093fc0146107c0578063db40bcff146107fd578063f2fde38b14610828578063f552102214610851578063fd3c91441461088e57610228565b8063d2e1da1e14610716578063d547741f14610741578063d6d141711461076a578063d708fe5b1461079557610228565b8063b431b2dc116100e7578063b431b2dc14610650578063b69ef8a814610667578063c24db16014610692578063c38c5813146106bd578063d00d30e0146106ed57610228565b8063939b409f146105a85780639df89256146105d1578063a217fddf146105fa578063aaabeb361461062557610228565b80634585e33b1161019b57806384b7964f1161016a57806384b7964f146104af57806385e68531146104ec5780638691a74a146105155780638da5cb5b1461054057806391d148541461056b57610228565b80634585e33b1461040657806361bc221a1461042f5780636e04ff0d1461045a578063715018a61461049857610228565b80632a0acc6a116101d75780632a0acc6a1461035e5780632f2ff15d1461038957806336568abe146103b25780633d7c5d3e146103db57610228565b806301ffc9a71461027e5780631c57333e146102bb578063248a9ca3146102e457806324d7806c1461032157610228565b3661022857346009600082825461021f9190611d2e565b92505081905550005b34801561023457600080fd5b506000803690501461024557600080fd5b7fd3f6be9fd42ca63d7d8f466cf84e429063ac713c319d5fd9edfa0232fc5f684d336040516102749190611dc5565b60405180910390a1005b34801561028a57600080fd5b506102a560048036038101906102a09190611e4c565b6108b9565b6040516102b29190611e94565b60405180910390f35b3480156102c757600080fd5b506102e260048036038101906102dd9190612021565b610933565b005b3480156102f057600080fd5b5061030b600480360381019061030691906120b3565b610aa1565b60405161031891906120ef565b60405180910390f35b34801561032d57600080fd5b5061034860048036038101906103439190612136565b610ac1565b6040516103559190611e94565b60405180910390f35b34801561036a57600080fd5b50610373610ad7565b60405161038091906120ef565b60405180910390f35b34801561039557600080fd5b506103b060048036038101906103ab9190612163565b610afb565b005b3480156103be57600080fd5b506103d960048036038101906103d49190612163565b610b24565b005b3480156103e757600080fd5b506103f0610ba7565b6040516103fd91906121b2565b60405180910390f35b34801561041257600080fd5b5061042d6004803603810190610428919061222d565b610bad565b005b34801561043b57600080fd5b50610444610c26565b60405161045191906121b2565b60405180910390f35b34801561046657600080fd5b50610481600480360381019061047c919061231b565b610c2c565b60405161048f9291906123ec565b60405180910390f35b3480156104a457600080fd5b506104ad610c59565b005b3480156104bb57600080fd5b506104d660048036038101906104d19190612136565b610ce1565b6040516104e39190611e94565b60405180910390f35b3480156104f857600080fd5b50610513600480360381019061050e9190612136565b610d14565b005b34801561052157600080fd5b5061052a610d93565b60405161053791906120ef565b60405180910390f35b34801561054c57600080fd5b50610555610db7565b6040516105629190611dc5565b60405180910390f35b34801561057757600080fd5b50610592600480360381019061058d9190612163565b610de0565b60405161059f9190611e94565b60405180910390f35b3480156105b457600080fd5b506105cf60048036038101906105ca919061241c565b610e4b565b005b3480156105dd57600080fd5b506105f860048036038101906105f3919061246f565b610f70565b005b34801561060657600080fd5b5061060f6111ea565b60405161061c91906120ef565b60405180910390f35b34801561063157600080fd5b5061063a6111f1565b60405161064791906121b2565b60405180910390f35b34801561065c57600080fd5b506106656111f7565b005b34801561067357600080fd5b5061067c611275565b60405161068991906121b2565b60405180910390f35b34801561069e57600080fd5b506106a761127b565b6040516106b491906121b2565b60405180910390f35b6106d760048036038101906106d29190612136565b611281565b6040516106e491906121b2565b60405180910390f35b3480156106f957600080fd5b50610714600480360381019061070f91906124af565b611465565b005b34801561072257600080fd5b5061072b611561565b60405161073891906120ef565b60405180910390f35b34801561074d57600080fd5b5061076860048036038101906107639190612163565b611585565b005b34801561077657600080fd5b5061077f6115ae565b60405161078c91906121b2565b60405180910390f35b3480156107a157600080fd5b506107aa6115b4565b6040516107b791906121b2565b60405180910390f35b3480156107cc57600080fd5b506107e760048036038101906107e291906124af565b6115ba565b6040516107f491906120ef565b60405180910390f35b34801561080957600080fd5b506108126115ed565b60405161081f91906121b2565b60405180910390f35b34801561083457600080fd5b5061084f600480360381019061084a9190612136565b6115f3565b005b34801561085d57600080fd5b5061087860048036038101906108739190612136565b6116eb565b6040516108859190611e94565b60405180910390f35b34801561089a57600080fd5b506108a361171e565b6040516108b091906121b2565b60405180910390f35b60007f7965db0b000000000000000000000000000000000000000000000000000000007bffffffffffffffffffffffffffffffffffffffffffffffffffffffff1916827bffffffffffffffffffffffffffffffffffffffffffffffffffffffff1916148061092c575061092b82611724565b5b9050919050565b6000600c60003373ffffffffffffffffffffffffffffffffffffffff1673ffffffffffffffffffffffffffffffffffffffff16815260200190815260200160002054146109b5576040517f08c379a00000000000000000000000000000000000000000000000000000000081526004016109ac90612572565b60405180910390fd5b60016008546109c49190611d2e565b600881905550600080600b60003373ffffffffffffffffffffffffffffffffffffffff1673ffffffffffffffffffffffffffffffffffffffff16815260200190815260200160002060006101000a81548160ff02191690836003811115610a2e57610a2d612592565b5b0217905550600042905080826003811115610a4c57610a4b612592565b5b3373ffffffffffffffffffffffffffffffffffffffff167eca4f5b36f76a4228d4087cc6def18e35559ad4ff688228b10eac8719d4ccb48787604051610a93929190612605565b60405180910390a450505050565b600060016000838152602001908152602001600020600101549050919050565b6000610ad06000801b83610de0565b9050919050565b7fdf8b4c520ffe197c5343c6f5aec59570151ef9a492f2c624fd45ddde6135ec4281565b610b0482610aa1565b610b1581610b1061178e565b611796565b610b1f8383611833565b505050565b610b2c61178e565b73ffffffffffffffffffffffffffffffffffffffff168173ffffffffffffffffffffffffffffffffffffffff1614610b99576040517f08c379a0000000000000000000000000000000000000000000000000000000008152600401610b90906126a7565b60405180910390fd5b610ba38282611913565b5050565b60045481565b60035460045442610bbe91906126c7565b1015610bc957600080fd5b60004290506001600554610bdd9190611d2e565b6005819055507fc403af90cc7a55e5eb53b1156dce3fb99af4275dfe7ed7b5687ec5341d5163a281604051610c1291906121b2565b60405180910390a180600481905550505050565b60055481565b60006060600254421015610c3f57600080fd5b60035460045442610c5091906126c7565b10159150915091565b610c6161178e565b73ffffffffffffffffffffffffffffffffffffffff16610c7f610db7565b73ffffffffffffffffffffffffffffffffffffffff1614610cd5576040517f08c379a0000000000000000000000000000000000000000000000000000000008152600401610ccc90612747565b60405180910390fd5b610cdf60006119f5565b565b6000610d0d7f43023f179164d629e1d761fb32e2db4dbd5ce417a23159d7da9cc7b56268928583610de0565b9050919050565b610d1c61178e565b73ffffffffffffffffffffffffffffffffffffffff16610d3a610db7565b73ffffffffffffffffffffffffffffffffffffffff1614610d90576040517f08c379a0000000000000000000000000000000000000000000000000000000008152600401610d8790612747565b60405180910390fd5b50565b7f43023f179164d629e1d761fb32e2db4dbd5ce417a23159d7da9cc7b56268928581565b60008060009054906101000a900473ffffffffffffffffffffffffffffffffffffffff16905090565b60006001600084815260200190815260200160002060000160008373ffffffffffffffffffffffffffffffffffffffff1673ffffffffffffffffffffffffffffffffffffffff16815260200190815260200160002060009054906101000a900460ff16905092915050565b610e54336116eb565b610e93576040517f08c379a0000000000000000000000000000000000000000000000000000000008152600401610e8a906127b3565b60405180910390fd5b6000610e9f84846115ba565b90506000600d6000838152602001908152602001600020541115610ef8576040517f08c379a0000000000000000000000000000000000000000000000000000000008152600401610eef9061281f565b60405180910390fd5b600042905080600d6000848152602001908152602001600020819055506001600654610f249190611d2e565b60068190555082827f4c97fdf164ea14e80985734993832b8b245b8bced4289cc5c38e3139490997a887873386604051610f61949392919061283f565b60405180910390a35050505050565b610f7933610ac1565b610fb8576040517f08c379a0000000000000000000000000000000000000000000000000000000008152600401610faf906128d0565b60405180910390fd5b60006003811115610fcc57610fcb612592565b5b600b60008473ffffffffffffffffffffffffffffffffffffffff1673ffffffffffffffffffffffffffffffffffffffff16815260200190815260200160002060009054906101000a900460ff16600381111561102b5761102a612592565b5b1461106b576040517f08c379a000000000000000000000000000000000000000000000000000000000815260040161106290612962565b60405180910390fd5b600081118061107a5750600381105b6110b9576040517f08c379a00000000000000000000000000000000000000000000000000000000081526004016110b0906129ce565b60405180910390fd5b600060018214156110e8577fa26228957b4ff1ee8d2f4555d58f130924b7939446a6af38afd42a510a51fbb490505b6002821415611115577f43023f179164d629e1d761fb32e2db4dbd5ce417a23159d7da9cc7b56268928590505b61111f8184610afb565b6001600b60008573ffffffffffffffffffffffffffffffffffffffff1673ffffffffffffffffffffffffffffffffffffffff16815260200190815260200160002060006101000a81548160ff0219169083600381111561118257611181612592565b5b0217905550600042905080600160038111156111a1576111a0612592565b5b8573ffffffffffffffffffffffffffffffffffffffff167f45944c4a3a588fdcfc8dd84a7bde60a498bf1b48f514e8b965216c9d8ed11c5960405160405180910390a450505050565b6000801b81565b600a5481565b6111ff61178e565b73ffffffffffffffffffffffffffffffffffffffff1661121d610db7565b73ffffffffffffffffffffffffffffffffffffffff1614611273576040517f08c379a000000000000000000000000000000000000000000000000000000000815260040161126a90612747565b60405180910390fd5b565b60095481565b60065481565b600080600c60008473ffffffffffffffffffffffffffffffffffffffff1673ffffffffffffffffffffffffffffffffffffffff1681526020019081526020016000205414611304576040517f08c379a00000000000000000000000000000000000000000000000000000000081526004016112fb90612a3a565b60405180910390fd5b6001600a546113139190612a5a565b3414611354576040517f08c379a000000000000000000000000000000000000000000000000000000000815260040161134b90612b26565b60405180910390fd5b34600960008282546113669190611d2e565b925050819055506113977fdf8b4c520ffe197c5343c6f5aec59570151ef9a492f2c624fd45ddde6135ec4283610afb565b6001600b60008473ffffffffffffffffffffffffffffffffffffffff1673ffffffffffffffffffffffffffffffffffffffff16815260200190815260200160002060006101000a81548160ff021916908360038111156113fa576113f9612592565b5b02179055506000429050806001600381111561141957611418612592565b5b8473ffffffffffffffffffffffffffffffffffffffff167f45944c4a3a588fdcfc8dd84a7bde60a498bf1b48f514e8b965216c9d8ed11c5960405160405180910390a480915050919050565b61146e33610ce1565b6114ad576040517f08c379a00000000000000000000000000000000000000000000000000000000081526004016114a490612b92565b60405180910390fd5b60006114b983836115ba565b90506000600d60008381526020019081526020016000205411611511576040517f08c379a000000000000000000000000000000000000000000000000000000000815260040161150890612c24565b60405180910390fd5b6000429050803373ffffffffffffffffffffffffffffffffffffffff16837f0e6cdeb741d22ba57cbcb7be872fd987a50290656f2862d2efdfb8bce22a9c4760405160405180910390a450505050565b7fa26228957b4ff1ee8d2f4555d58f130924b7939446a6af38afd42a510a51fbb481565b61158e82610aa1565b61159f8161159a61178e565b611796565b6115a98383611913565b505050565b60025481565b60075481565b600082826040516020016115cf929190612c44565b60405160208183030381529060405280519060200120905092915050565b60085481565b6115fb61178e565b73ffffffffffffffffffffffffffffffffffffffff16611619610db7565b73ffffffffffffffffffffffffffffffffffffffff161461166f576040517f08c379a000000000000000000000000000000000000000000000000000000000815260040161166690612747565b60405180910390fd5b600073ffffffffffffffffffffffffffffffffffffffff168173ffffffffffffffffffffffffffffffffffffffff1614156116df576040517f08c379a00000000000000000000000000000000000000000000000000000000081526004016116d690612cdf565b60405180910390fd5b6116e8816119f5565b50565b60006117177fa26228957b4ff1ee8d2f4555d58f130924b7939446a6af38afd42a510a51fbb483610de0565b9050919050565b60035481565b60007f01ffc9a7000000000000000000000000000000000000000000000000000000007bffffffffffffffffffffffffffffffffffffffffffffffffffffffff1916827bffffffffffffffffffffffffffffffffffffffffffffffffffffffff1916149050919050565b600033905090565b6117a08282610de0565b61182f576117c58173ffffffffffffffffffffffffffffffffffffffff166014611ab9565b6117d38360001c6020611ab9565b6040516020016117e4929190612dd3565b6040516020818303038152906040526040517f08c379a00000000000000000000000000000000000000000000000000000000081526004016118269190612e0d565b60405180910390fd5b5050565b61183d8282610de0565b61190f57600180600084815260200190815260200160002060000160008373ffffffffffffffffffffffffffffffffffffffff1673ffffffffffffffffffffffffffffffffffffffff16815260200190815260200160002060006101000a81548160ff0219169083151502179055506118b461178e565b73ffffffffffffffffffffffffffffffffffffffff168173ffffffffffffffffffffffffffffffffffffffff16837f2f8788117e7eff1d82e926ec794901d17c78024a50270940304540a733656f0d60405160405180910390a45b5050565b61191d8282610de0565b156119f15760006001600084815260200190815260200160002060000160008373ffffffffffffffffffffffffffffffffffffffff1673ffffffffffffffffffffffffffffffffffffffff16815260200190815260200160002060006101000a81548160ff02191690831515021790555061199661178e565b73ffffffffffffffffffffffffffffffffffffffff168173ffffffffffffffffffffffffffffffffffffffff16837ff6391f5c32d9c69d2a47ea670b442974b53935d1edc7fd64eb21e047a839171b60405160405180910390a45b5050565b60008060009054906101000a900473ffffffffffffffffffffffffffffffffffffffff169050816000806101000a81548173ffffffffffffffffffffffffffffffffffffffff021916908373ffffffffffffffffffffffffffffffffffffffff1602179055508173ffffffffffffffffffffffffffffffffffffffff168173ffffffffffffffffffffffffffffffffffffffff167f8be0079c531659141344cd1fd0a4f28419497f9722a3daafe3b4186f6b6457e060405160405180910390a35050565b606060006002836002611acc9190612a5a565b611ad69190611d2e565b67ffffffffffffffff811115611aef57611aee611ef6565b5b6040519080825280601f01601f191660200182016040528015611b215781602001600182028036833780820191505090505b5090507f300000000000000000000000000000000000000000000000000000000000000081600081518110611b5957611b58612e2f565b5b60200101907effffffffffffffffffffffffffffffffffffffffffffffffffffffffffffff1916908160001a9053507f780000000000000000000000000000000000000000000000000000000000000081600181518110611bbd57611bbc612e2f565b5b60200101907effffffffffffffffffffffffffffffffffffffffffffffffffffffffffffff1916908160001a90535060006001846002611bfd9190612a5a565b611c079190611d2e565b90505b6001811115611ca7577f3031323334353637383961626364656600000000000000000000000000000000600f861660108110611c4957611c48612e2f565b5b1a60f81b828281518110611c6057611c5f612e2f565b5b60200101907effffffffffffffffffffffffffffffffffffffffffffffffffffffffffffff1916908160001a905350600485901c945080611ca090612e5e565b9050611c0a565b5060008414611ceb576040517f08c379a0000000000000000000000000000000000000000000000000000000008152600401611ce290612ed4565b60405180910390fd5b8091505092915050565b6000819050919050565b7f4e487b7100000000000000000000000000000000000000000000000000000000600052601160045260246000fd5b6000611d3982611cf5565b9150611d4483611cf5565b9250827fffffffffffffffffffffffffffffffffffffffffffffffffffffffffffffffff03821115611d7957611d78611cff565b5b828201905092915050565b600073ffffffffffffffffffffffffffffffffffffffff82169050919050565b6000611daf82611d84565b9050919050565b611dbf81611da4565b82525050565b6000602082019050611dda6000830184611db6565b92915050565b6000604051905090565b600080fd5b600080fd5b60007fffffffff0000000000000000000000000000000000000000000000000000000082169050919050565b611e2981611df4565b8114611e3457600080fd5b50565b600081359050611e4681611e20565b92915050565b600060208284031215611e6257611e61611dea565b5b6000611e7084828501611e37565b91505092915050565b60008115159050919050565b611e8e81611e79565b82525050565b6000602082019050611ea96000830184611e85565b92915050565b611eb881611cf5565b8114611ec357600080fd5b50565b600081359050611ed581611eaf565b92915050565b600080fd5b600080fd5b6000601f19601f8301169050919050565b7f4e487b7100000000000000000000000000000000000000000000000000000000600052604160045260246000fd5b611f2e82611ee5565b810181811067ffffffffffffffff82111715611f4d57611f4c611ef6565b5b80604052505050565b6000611f60611de0565b9050611f6c8282611f25565b919050565b600067ffffffffffffffff821115611f8c57611f8b611ef6565b5b611f9582611ee5565b9050602081019050919050565b82818337600083830152505050565b6000611fc4611fbf84611f71565b611f56565b905082815260208101848484011115611fe057611fdf611ee0565b5b611feb848285611fa2565b509392505050565b600082601f83011261200857612007611edb565b5b8135612018848260208601611fb1565b91505092915050565b6000806040838503121561203857612037611dea565b5b600061204685828601611ec6565b925050602083013567ffffffffffffffff81111561206757612066611def565b5b61207385828601611ff3565b9150509250929050565b6000819050919050565b6120908161207d565b811461209b57600080fd5b50565b6000813590506120ad81612087565b92915050565b6000602082840312156120c9576120c8611dea565b5b60006120d78482850161209e565b91505092915050565b6120e98161207d565b82525050565b600060208201905061210460008301846120e0565b92915050565b61211381611da4565b811461211e57600080fd5b50565b6000813590506121308161210a565b92915050565b60006020828403121561214c5761214b611dea565b5b600061215a84828501612121565b91505092915050565b6000806040838503121561217a57612179611dea565b5b60006121888582860161209e565b925050602061219985828601612121565b9150509250929050565b6121ac81611cf5565b82525050565b60006020820190506121c760008301846121a3565b92915050565b600080fd5b600080fd5b60008083601f8401126121ed576121ec611edb565b5b8235905067ffffffffffffffff81111561220a576122096121cd565b5b602083019150836001820283011115612226576122256121d2565b5b9250929050565b6000806020838503121561224457612243611dea565b5b600083013567ffffffffffffffff81111561226257612261611def565b5b61226e858286016121d7565b92509250509250929050565b600067ffffffffffffffff82111561229557612294611ef6565b5b61229e82611ee5565b9050602081019050919050565b60006122be6122b98461227a565b611f56565b9050828152602081018484840111156122da576122d9611ee0565b5b6122e5848285611fa2565b509392505050565b600082601f83011261230257612301611edb565b5b81356123128482602086016122ab565b91505092915050565b60006020828403121561233157612330611dea565b5b600082013567ffffffffffffffff81111561234f5761234e611def565b5b61235b848285016122ed565b91505092915050565b600081519050919050565b600082825260208201905092915050565b60005b8381101561239e578082015181840152602081019050612383565b838111156123ad576000848401525b50505050565b60006123be82612364565b6123c8818561236f565b93506123d8818560208601612380565b6123e181611ee5565b840191505092915050565b60006040820190506124016000830185611e85565b818103602083015261241381846123b3565b90509392505050565b60008060006060848603121561243557612434611dea565b5b600061244386828701611ec6565b935050602061245486828701611ec6565b925050604061246586828701611ec6565b9150509250925092565b6000806040838503121561248657612485611dea565b5b600061249485828601612121565b92505060206124a585828601611ec6565b9150509250929050565b600080604083850312156124c6576124c5611dea565b5b60006124d485828601611ec6565b92505060206124e585828601611ec6565b9150509250929050565b600082825260208201905092915050565b7f54686973207573657220697320616c726561647920726567697374657265642c60008201527f20636f6e746163742041646d696e000000000000000000000000000000000000602082015250565b600061255c602e836124ef565b915061256782612500565b604082019050919050565b6000602082019050818103600083015261258b8161254f565b9050919050565b7f4e487b7100000000000000000000000000000000000000000000000000000000600052602160045260246000fd5b600081519050919050565b60006125d7826125c1565b6125e181856124ef565b93506125f1818560208601612380565b6125fa81611ee5565b840191505092915050565b600060408201905061261a60008301856121a3565b818103602083015261262c81846125cc565b90509392505050565b7f416363657373436f6e74726f6c3a2063616e206f6e6c792072656e6f756e636560008201527f20726f6c657320666f722073656c660000000000000000000000000000000000602082015250565b6000612691602f836124ef565b915061269c82612635565b604082019050919050565b600060208201905081810360008301526126c081612684565b9050919050565b60006126d282611cf5565b91506126dd83611cf5565b9250828210156126f0576126ef611cff565b5b828203905092915050565b7f4f776e61626c653a2063616c6c6572206973206e6f7420746865206f776e6572600082015250565b60006127316020836124ef565b915061273c826126fb565b602082019050919050565b6000602082019050818103600083015261276081612724565b9050919050565b7f5265737472696374656420746f2050726f647563657273000000000000000000600082015250565b600061279d6017836124ef565b91506127a882612767565b602082019050919050565b600060208201905081810360008301526127cc81612790565b9050919050565b7f52656167656e7420616c7265616479206578697374696e672100000000000000600082015250565b60006128096019836124ef565b9150612814826127d3565b602082019050919050565b60006020820190508181036000830152612838816127fc565b9050919050565b600060808201905061285460008301876121a3565b61286160208301866121a3565b61286e6040830185611db6565b61287b60608301846121a3565b95945050505050565b7f5265737472696374656420746f2061646d696e00000000000000000000000000600082015250565b60006128ba6013836124ef565b91506128c582612884565b602082019050919050565b600060208201905081810360008301526128e9816128ad565b9050919050565b7f55736572206973206e6f7420696e2070656e64696e67207374617465206f722060008201527f77726f6e67206164647265737300000000000000000000000000000000000000602082015250565b600061294c602d836124ef565b9150612957826128f0565b604082019050919050565b6000602082019050818103600083015261297b8161293f565b9050919050565b7f496e76616c696420726f6c65206e756d62657221000000000000000000000000600082015250565b60006129b86014836124ef565b91506129c382612982565b602082019050919050565b600060208201905081810360008301526129e7816129ab565b9050919050565b7f546869732041646d696e20697320616c72656164792072656769737465726564600082015250565b6000612a246020836124ef565b9150612a2f826129ee565b602082019050919050565b60006020820190508181036000830152612a5381612a17565b9050919050565b6000612a6582611cf5565b9150612a7083611cf5565b9250817fffffffffffffffffffffffffffffffffffffffffffffffffffffffffffffffff0483118215151615612aa957612aa8611cff565b5b828202905092915050565b7f56616c7565207472616e736665726564206973206e6f7420656e6f756768207460008201527f6f20636f7665722041646d696e206170706c69636174696f6e00000000000000602082015250565b6000612b106039836124ef565b9150612b1b82612ab4565b604082019050919050565b60006020820190508181036000830152612b3f81612b03565b9050919050565b7f5265737472696374656420746f20636c69656e74730000000000000000000000600082015250565b6000612b7c6015836124ef565b9150612b8782612b46565b602082019050919050565b60006020820190508181036000830152612bab81612b6f565b9050919050565b7f536f6c6963697465642052656167656e7420646f65736e27742065786973742c60008201527f20636f6e746163742041646d696e000000000000000000000000000000000000602082015250565b6000612c0e602e836124ef565b9150612c1982612bb2565b604082019050919050565b60006020820190508181036000830152612c3d81612c01565b9050919050565b6000604082019050612c5960008301856121a3565b612c6660208301846121a3565b9392505050565b7f4f776e61626c653a206e6577206f776e657220697320746865207a65726f206160008201527f6464726573730000000000000000000000000000000000000000000000000000602082015250565b6000612cc96026836124ef565b9150612cd482612c6d565b604082019050919050565b60006020820190508181036000830152612cf881612cbc565b9050919050565b600081905092915050565b7f416363657373436f6e74726f6c3a206163636f756e7420000000000000000000600082015250565b6000612d40601783612cff565b9150612d4b82612d0a565b601782019050919050565b6000612d61826125c1565b612d6b8185612cff565b9350612d7b818560208601612380565b80840191505092915050565b7f206973206d697373696e6720726f6c6520000000000000000000000000000000600082015250565b6000612dbd601183612cff565b9150612dc882612d87565b601182019050919050565b6000612dde82612d33565b9150612dea8285612d56565b9150612df582612db0565b9150612e018284612d56565b91508190509392505050565b60006020820190508181036000830152612e2781846125cc565b905092915050565b7f4e487b7100000000000000000000000000000000000000000000000000000000600052603260045260246000fd5b6000612e6982611cf5565b91506000821415612e7d57612e7c611cff565b5b600182039050919050565b7f537472696e67733a20686578206c656e67746820696e73756666696369656e74600082015250565b6000612ebe6020836124ef565b9150612ec982612e88565b602082019050919050565b60006020820190508181036000830152612eed81612eb1565b905091905056fea26469706673582212201e03227a749546cb3c108e4533d56b4dd6a41934fd18160b6773c70a4262feb064736f6c634300080a0033",
  "devdoc": {
    "events": {
      "ReagentCreation(bytes32,uint256,uint256,address,uint256,uint256)": {
        "details": "EVENTS:"
      }
    },
    "kind": "dev",
    "methods": {
      "checkUpkeep(bytes)": {
        "details": "Oracle functions:      Oracle used: Chainlink's keeper      the keeper uses checkUpkeep and performUpkee functions.      Off-chain a keeper node runs a simulation of the checkUpkeep function.      when a condition is met, the keeper broadcasts      a transaction to the blockchain executing the       performUpkeep function. When the performUpkeep function is executed      an email is sent to all the Clients whose reagent has expired.      When the current date corresponds to the first day of the month, the       condition is met. However, for testing purposes, when the condition will       be met every hour.  ",
        "params": {
          "": "/*checkData*/ (not used in this case)"
        },
        "returns": {
          "upkeepNeeded": "(if true the keeper executes the performUpkeep function)         /*performData*/ not used  "
        }
      },
      "constructor": {
        "details": "CONSTRUCTOR:"
      },
      "createReagent(uint256,uint256,uint256)": {
        "details": "PRODUCER FUNCTIONS:"
      },
      "getRoleAdmin(bytes32)": {
        "details": "Returns the admin role that controls `role`. See {grantRole} and {revokeRole}. To change a role's admin, use {_setRoleAdmin}."
      },
      "grantRole(bytes32,address)": {
        "details": "Grants `role` to `account`. If `account` had not been already granted `role`, emits a {RoleGranted} event. Requirements: - the caller must have ``role``'s admin role."
      },
      "hasRole(bytes32,address)": {
        "details": "Returns `true` if `account` has been granted `role`."
      },
      "isAdmin(address)": {
        "details": "checks if the message sender is the admin   ",
        "params": {
          "userAddress": "corresponds to the address of the user invoking the function"
        },
        "returns": {
          "_0": "bool, true if the user address belongs to the admin role"
        }
      },
      "isClient(address)": {
        "details": "Returns true if the userAddress belongs to a client"
      },
      "isProducer(address)": {
        "details": "Returns true if the userAddress belongs to a producer"
      },
      "owner()": {
        "details": "Returns the address of the current owner."
      },
      "performUpkeep(bytes)": {
        "params": {
          "": "/*performData*/ (not used in this case)"
        }
      },
      "registerAdmin(address)": {
        "details": "ADMIN REGISTRATION FUNCTIONS:        "
      },
      "registerUser(uint256,string)": {
        "details": "USER REGISTRATION FUNCTIONS:    "
      },
      "renounceOwnership()": {
        "details": "Leaves the contract without owner. It will not be possible to call `onlyOwner` functions anymore. Can only be called by the current owner. NOTE: Renouncing ownership will leave the contract without an owner, thereby removing any functionality that is only available to the owner."
      },
      "renounceRole(bytes32,address)": {
        "details": "Revokes `role` from the calling account. Roles are often managed via {grantRole} and {revokeRole}: this function's purpose is to provide a mechanism for accounts to lose their privileges if they are compromised (such as when a trusted device is misplaced). If the calling account had been granted `role`, emits a {RoleRevoked} event. Requirements: - the caller must be `account`."
      },
      "revokeRole(bytes32,address)": {
        "details": "Revokes `role` from `account`. If `account` had been granted `role`, emits a {RoleRevoked} event. Requirements: - the caller must have ``role``'s admin role."
      },
      "subscribeToAReagent(uint256,uint256)": {
        "details": "CLIENT FUNCTIONS:"
      },
      "supportsInterface(bytes4)": {
        "details": "See {IERC165-supportsInterface}."
      },
      "transferOwnership(address)": {
        "details": "Transfers ownership of the contract to a new account (`newOwner`). Can only be called by the current owner."
      }
    },
    "stateVariables": {
      "PRODUCER": {
        "details": "CONSTANTS:"
      },
      "initialTimestamp": {
        "details": "VARIABLES:"
      },
      "intervalTime": {
        "details": "to ease the process of testing, set this variable to 5 minutes(300 seconds);"
      },
      "userAddressToStateOfUser": {
        "details": "MAPPINGS:"
      }
    },
    "version": 1
  },
  "userdoc": {
    "events": {
      "ReagentCreation(bytes32,uint256,uint256,address,uint256,uint256)": {
        "notice": "***********************************************************************"
      }
    },
    "kind": "user",
    "methods": {
      "PRODUCER()": {
        "notice": "***********************************************************************"
      },
      "constructor": {
        "notice": "***********************************************************************"
      },
      "initialTimestamp()": {
        "notice": "***********************************************************************"
      }
    },
    "version": 1
  },
  "storageLayout": {
    "storage": [
      {
        "astId": 406,
        "contract": "contracts/Charlize.sol:Charlize",
        "label": "_owner",
        "offset": 0,
        "slot": "0",
        "type": "t_address"
      },
      {
        "astId": 43,
        "contract": "contracts/Charlize.sol:Charlize",
        "label": "_roles",
        "offset": 0,
        "slot": "1",
        "type": "t_mapping(t_bytes32,t_struct(RoleData)38_storage)"
      },
      {
        "astId": 778,
        "contract": "contracts/Charlize.sol:Charlize",
        "label": "initialTimestamp",
        "offset": 0,
        "slot": "2",
        "type": "t_uint256"
      },
      {
        "astId": 781,
        "contract": "contracts/Charlize.sol:Charlize",
        "label": "intervalTime",
        "offset": 0,
        "slot": "3",
        "type": "t_uint256"
      },
      {
        "astId": 783,
        "contract": "contracts/Charlize.sol:Charlize",
        "label": "lastUpkeep",
        "offset": 0,
        "slot": "4",
        "type": "t_uint256"
      },
      {
        "astId": 785,
        "contract": "contracts/Charlize.sol:Charlize",
        "label": "counter",
        "offset": 0,
        "slot": "5",
        "type": "t_uint256"
      },
      {
        "astId": 787,
        "contract": "contracts/Charlize.sol:Charlize",
        "label": "reagentCount",
        "offset": 0,
        "slot": "6",
        "type": "t_uint256"
      },
      {
        "astId": 789,
        "contract": "contracts/Charlize.sol:Charlize",
        "label": "producerCount",
        "offset": 0,
        "slot": "7",
        "type": "t_uint256"
      },
      {
        "astId": 791,
        "contract": "contracts/Charlize.sol:Charlize",
        "label": "userApplicationCount",
        "offset": 0,
        "slot": "8",
        "type": "t_uint256"
      },
      {
        "astId": 793,
        "contract": "contracts/Charlize.sol:Charlize",
        "label": "balance",
        "offset": 0,
        "slot": "9",
        "type": "t_uint256"
      },
      {
        "astId": 795,
        "contract": "contracts/Charlize.sol:Charlize",
        "label": "adminApplicationFee",
        "offset": 0,
        "slot": "10",
        "type": "t_uint256"
      },
      {
        "astId": 817,
        "contract": "contracts/Charlize.sol:Charlize",
        "label": "userAddressToStateOfUser",
        "offset": 0,
        "slot": "11",
        "type": "t_mapping(t_address,t_enum(UserState)883)"
      },
      {
        "astId": 821,
        "contract": "contracts/Charlize.sol:Charlize",
        "label": "userAddressToRegistrationDate",
        "offset": 0,
        "slot": "12",
        "type": "t_mapping(t_address,t_uint256)"
      },
      {
        "astId": 825,
        "contract": "contracts/Charlize.sol:Charlize",
        "label": "reagentIDToReagentCreationDate",
        "offset": 0,
        "slot": "13",
        "type": "t_mapping(t_bytes32,t_uint256)"
      }
    ],
    "types": {
      "t_address": {
        "encoding": "inplace",
        "label": "address",
        "numberOfBytes": "20"
      },
      "t_bool": {
        "encoding": "inplace",
        "label": "bool",
        "numberOfBytes": "1"
      },
      "t_bytes32": {
        "encoding": "inplace",
        "label": "bytes32",
        "numberOfBytes": "32"
      },
      "t_enum(UserState)883": {
        "encoding": "inplace",
        "label": "enum Charlize.UserState",
        "numberOfBytes": "1"
      },
      "t_mapping(t_address,t_bool)": {
        "encoding": "mapping",
        "key": "t_address",
        "label": "mapping(address => bool)",
        "numberOfBytes": "32",
        "value": "t_bool"
      },
      "t_mapping(t_address,t_enum(UserState)883)": {
        "encoding": "mapping",
        "key": "t_address",
        "label": "mapping(address => enum Charlize.UserState)",
        "numberOfBytes": "32",
        "value": "t_enum(UserState)883"
      },
      "t_mapping(t_address,t_uint256)": {
        "encoding": "mapping",
        "key": "t_address",
        "label": "mapping(address => uint256)",
        "numberOfBytes": "32",
        "value": "t_uint256"
      },
      "t_mapping(t_bytes32,t_struct(RoleData)38_storage)": {
        "encoding": "mapping",
        "key": "t_bytes32",
        "label": "mapping(bytes32 => struct AccessControl.RoleData)",
        "numberOfBytes": "32",
        "value": "t_struct(RoleData)38_storage"
      },
      "t_mapping(t_bytes32,t_uint256)": {
        "encoding": "mapping",
        "key": "t_bytes32",
        "label": "mapping(bytes32 => uint256)",
        "numberOfBytes": "32",
        "value": "t_uint256"
      },
      "t_struct(RoleData)38_storage": {
        "encoding": "inplace",
        "label": "struct AccessControl.RoleData",
        "members": [
          {
            "astId": 35,
            "contract": "contracts/Charlize.sol:Charlize",
            "label": "members",
            "offset": 0,
            "slot": "0",
            "type": "t_mapping(t_address,t_bool)"
          },
          {
            "astId": 37,
            "contract": "contracts/Charlize.sol:Charlize",
            "label": "adminRole",
            "offset": 0,
            "slot": "1",
            "type": "t_bytes32"
          }
        ],
        "numberOfBytes": "64"
      },
      "t_uint256": {
        "encoding": "inplace",
        "label": "uint256",
        "numberOfBytes": "32"
      }
    }
  }
}